:020000040800F2
:100000000000022011350008C9330008D133000870
:10001000D9330008E1330008E9330008000000008C
:10002000000000000000000000000000F1330008A4
:10003000FF330008000000000D3400081B340008E6
:100040006135000861350008613500086135000838
:10005000613500086135000827340008393400088C
:100060004B3400085D340008613500086135000834
:1000700071340008613500086135000861350008F9
:1000800085340008613500086135000861350008D5
:1000900061350008613500086135000861350008E8
:1000A00061350008613500086135000861350008D8
:1000B00061350008613500086135000861350008C8
:1000C00061350008613500086135000861350008B8
:1000D000613500086135000899340008AD34000826
:1000E0006135000861350008613500086135000898
:1000F0006135000861350008613500086135000888
:100100006135000861350008613500086135000877
:10011000613500086135000861350008C134000808
:100120006135000861350008613500086135000857
:100130006135000861350008613500086135000847
:10014000613500086135000861350008D9340008C0
:100150006135000861350008613500086135000827
:100160006135000861350008613500086135000817
:1001700061350008613500086135000800000000A5
:0801800061350008613500083B
:1001880010B5054C237833B9044B13B10448AFF3C9
:1001980000800123237010BD7801002000000000BA
:1001A800A4D5000808B5034B1BB103490348AFF3B6
:1001B800008008BD000000007C010020A4D50008D4
:1001C80053B94AB9002908BF00281CBF4FF0FF31B6
:1001D8004FF0FF3000F06AB9ADF1080C6DE904CEBC
:1001E80000F006F8DDF804E0DDE9022304B070470A
:1001F8002DE9F047089D0C46002B4ED194468C45BE
:100208008646B2FA82F262D94AB1C2F1200391401D
:1002180020FA03F30CFA02FC194300FA02FE4FEA33
:100228001C471FFA8CF6B1FBF7F44FEA1E4307FB95
:10023800141143EA014304FB06F199420AD91CEB65
:10024800030304F1FF3080F01281994240F20F81DC
:10025800023C6344591A1FFA8EF3B1FBF7F007FB0F
:10026800101143EA014300FB06F69E420AD91CEB33
:10027800030300F1FF3180F0FC809E4240F2F980D8
:10028800634402389B1B40EA044000211DB1D3405F
:100298000022C5E90032BDE8F0878B4205D90DB1CF
:1002A800C5E9000100210846F5E7B3FA83F1002902
:1002B80046D1A34202D39042C0F0F080861A64EB84
:1002C80003030120002DE6D0C5E90063E3E7002A17
:1002D80040F09080A1EB0C044FEA1C481FFA8CF701
:1002E8000121B4FBF8F64FEA1E4308FB164443EA23
:1002F800044307FB06F0984208D91CEB030306F1F8
:10030800FF3402D2984200F2CD8026461C1A1FFA0A
:100318008EF3B4FBF8F008FB104443EA044300FBF7
:1003280007F79F4208D91CEB030300F1FF3402D200
:100338009F4200F2B0802046DB1B40EA0640A5E75A
:10034800C1F120068B4022FA06F71F4320FA06FC6B
:1003580004FA01F343EA0C03F44000FA01F8380CFC
:100368004FEA1349B4FBF0FE1FFA87FC00FB1E445A
:1003780049EA04440EFB0CF9A14502FA01F20AD934
:100388003C190EF1FF3A80F08480A14540F281804B
:10039800AEF1020E3C44A4EB09041FFA83F9B4FB46
:1003A800F0F300FB134449EA044403FB0CFCA445A6
:1003B80007D93C1903F1FF3067D2A44565D9023B40
:1003C8003C4443EA0E40A0FB0293A4EB0C049C427D
:1003D800CE469C4651D34ED055B1B8EB0E0364EBD4
:1003E8000C0404FA06F6CB401E43CC40C5E9006471
:1003F800002150E7C2F1200320FA03F10CFA02FCB5
:1004080024FA03F394400C434FEA1C4800FA02FE16
:100418001FFA8CF7B3FBF8F008FB1031230C43EA02
:10042800014300FB07F1994208D91CEB030300F1D3
:10043800FF362CD299422AD9023863445B1AA4B2F7
:10044800B3FBF8F108FB113344EA034401FB07F35B
:10045800A34208D91CEB040401F1FF3613D2A342CE
:1004680011D902396444E41A41EA004139E70446E3
:10047800F0E6084606E7C845AED2B9EB020E63EBD4
:10048800070C0138A8E73146EDE7034699E73046FF
:10049800D4E7D6467FE7634402384DE7064623464D
:1004A80008460FE7023E634430E700BF704700BFCD
:1004B80080B500AF0021184805F0E4FF0021174877
:1004C80005F0E0FF0421164805F0DCFF124B1B681D
:1004D80000225A62114B1B6800225A62104B1B689B
:1004E80000225A6208210F4805F0CCFF00210E486F
:1004F80005F0C8FF00210D4805F0C4FF094B1B6833
:1005080000225A62084B1B6800225A62074B1B687C
:1005180000225A6200BF80BD180400206004002039
:1005280088030020F0040020D003002040030020AE
:1005380080B582B000AF00237B6037E01F4A7B683C
:100548004C2101FB03F3134440331B7818460CF08D
:1005580013FB034607EE903AF8EE677A18497A6873
:1005680013465B0013449B000B44C3ED007A134A07
:100578007B684C2101FB03F3134440331B780133A0
:10058800DBB218460CF0F8FA034607EE903AF8EE9C
:10059800677A0B497A6813465B0013449B000B4447
:1005A8000433C3ED007A7B6801337B607B68022BE0
:1005B800C4DD00BF00BF0837BD4680BD94010020E0
:1005C8007802002080B483B000AF00237B6066E02F
:1005D800384A7B684C2101FB03F31344143300228F
:1005E8001A60344A7B684C2101FB03F31344183327
:1005F80000221A602F4A7B684C2101FB03F3134445
:10060800243300221A602B4A7B684C2101FB03F338
:100618001344283300221A60264A7B684C2101FBC8
:1006280003F313442C334FF000021A60214A7B680D
:100638004C2101FB03F31344313300221A701D4A85
:100648007B684C2101FB03F31344343300221A6006
:10065800184A7B684C2101FB03F313442033002222
:100668001A60144A7B684C2101FB03F313443033AE
:1006780000221A700F4A7B684C2101FB03F31344D4
:10068800383300221A600B4A7B684C2101FB03F3C4
:100698001344323300221A707B6801337B607B6815
:1006A800022B95DD00BF00BF0C37BD465DF8047B0B
:1006B800704700BF9401002080B500AF274B284A3F
:1006C8001A60264B274A5A60244B00229A60234B13
:1006D8000422DA60214B244A1A61204B4DF2106241
:1006E8005A641E4B002283F840201C4B1F4ADA64D0
:1006F8001A4B1F4A1A65194B00225A65174B0022DC
:100708009A65164B1B4ADA65144B46F66052C3F8D5
:100718009020124B032283F88C20104B164AC3F802
:1007280098200E4B154AC3F89C200C4B0822C3F89E
:10073800A0200A4B0022C3F8A420084B104AC3F893
:10074800A820064B43F2C822C3F8DC20034B06223C
:1007580083F8D820FFF736FF00BF80BD9401002042
:100768004003002088030020C1160008D0030020A1
:100778006004002009170008F00400201804002075
:100788004D17000880B584B000AFF860B9607A6092
:10079800FB6893F83130DBB2072B75D0FB6893F810
:1007A8003C30DBB2012B6FD0FB685B6CBA689A42B5
:1007B80002DBFB685B6CBB60BB68002B01D10023CC
:1007C800BB60FB68BA689A617A68FB689A627B6862
:1007D800304AA2FB03239B09013B2F4A9B00134489
:1007E8001A68FB68DA62FB689A69FB685B699A4277
:1007F80004DDFB68002283F8302009E0FB689A6971
:10080800FB685B699A4241DAFB68012283F8302071
:10081800FB681B69FA6892F830201046984703462F
:100828001A46FB6893F830309A4206D0FB681B6979
:10083800FA6892F8302010469847FB689A69FB6876
:100848005B699A4205DDFB689A69FB685B69D31AA4
:1008580004E0FB685A69FB689B69D31AFA68D3619C
:10086800FB68012283F83120FB68012283F83C20D1
:10087800FB68002283F83D20FB6800221A62FB68AF
:100888004FF47A725A6202E000BF00E000BF1037EE
:10089800BD4680BDD34D621004D6000880B483B035
:1008A80000AF78607B681B681B6800225A627B680F
:1008B8005B681B6800225A627B68DA697B685B6840
:1008C8001B68DA627B68DA697B685B68DA607B6878
:1008D800DB68002B06D17B68DA697B685B681B687C
:1008E8005A631EE07B68DB68042B07D17B68D969F3
:1008F8007B685B681A680B46936312E07B68DB6869
:10090800082B07D17B68D9697B685B681A680B4636
:10091800D36306E07B68D9697B685B681A680B4615
:1009280013647B685B681B6801225A617B681B68DB
:100938001B6840F2E732DA627B681B6840F2E732F4
:10094800DA607B689B68002B06D17B681B681B6894
:1009580040F2F3125A631BE07B689B68042B06D1B4
:100968007B681B681A6840F2F313936310E07B6896
:100978009B68082B06D17B681B681A6840F2F31342
:10098800D36305E07B681B681A6840F2F3131364AD
:100998007B681B681B6801225A6100BF0C37BD4683
:1009A8005DF8047B704780B483B000AF78607B68E3
:1009B80093F83C30DBB2002B36D07B689B68002B69
:1009C80005D17B681B681B6800225A6318E07B68A6
:1009D8009B68042B05D17B681B681A680023936306
:1009E8000EE07B689B68082B05D17B681B681A683A
:1009F8000023D36304E07B681B681A680023136430
:100A08007B681B681B685A697B681B681B6842F017
:100A180001025A617B6800225A637B68002283F8CE
:100A280031207B6800225A62012318460C37BD46E4
:100A38005DF8047B7047000080B582B000AF0023EA
:100A48007B600BE07B684C2202FB03F3074A1344EC
:100A58001846FFF7A8FF7B6801337B607B68022B91
:100A6800F0DD00BF00BF0837BD4680BD94010020FF
:100A780080B400AF204B5B691F4A23F400735361B5
:100A88001E4B9B68002B05D11C4B1B681B68002262
:100A98005A6318E0194B9B68042B05D1174B1B6848
:100AA8001A68002393630EE0144B9B68082B05D14A
:100AB800124B1B681A680023D36304E00F4B1B68B2
:100AC8001A68002313640D4B1B681B685A690B4B8B
:100AD8001B681B6842F001025A61084B00225A63E6
:100AE800064B002283F83120044B00225A6200BFD3
:100AF800BD465DF8047B7047000002409401002069
:100B080080B400AF214B5B69204A23F08003536116
:100B18001F4B5B6D002B05D11D4BDB6C1B68002246
:100B28005A6318E01A4B5B6D042B05D1184BDB6C2C
:100B38001A68002393630EE0154B5B6D082B05D1F3
:100B4800134BDB6C1A680023D36304E0104BDB6C97
:100B58001A68002313640E4BDB6C1B685A690C4B34
:100B6800DB6C1B6842F001025A61094B0022C3F892
:100B78008020074B002283F87D20054B00221A674E
:100B880000BFBD465DF8047B704700BF0008024007
:100B98009401002080B400AF264B5B69254A23F4FA
:100BA80000735361244BD3F8A030002B06D1224B9D
:100BB800D3F898301B6800225A631DE01E4BD3F807
:100BC800A030042B06D11C4BD3F898301A680023A8
:100BD800936311E0184BD3F8A030082B06D1164BBD
:100BE800D3F898301A680023D36305E0124BD3F882
:100BF80098301A68002313640F4BD3F898301B6899
:100C08005A690D4BD3F898301B6842F001025A61BB
:100C1800094B0022C3F8CC20074B002283F8C920D7
:100C2800054B0022C3F8BC2000BFBD465DF8047B1D
:100C3800704700BF000802409401002080B400AF54
:100C48000D4B93F83C30DBB2002B0BD10A4B93F8D9
:100C58008830DBB2002B05D1074B93F8D430DBB2D8
:100C6800002B01D0012300E00023DBB21846BD466B
:100C78005DF8047B704700BF9401002080B582B006
:100C880000AF78607B681B78DBB2012B05D1A44BE1
:100C980001221A707B6802221A70A14B1B78013B53
:100CA800042B00F2DB8101A252F823F0C90C0008E2
:100CB8006D0D0008750E0008450F0008FD0F0008AF
:100CC800984B1B78002B25D1FFF7B8FF0346002B64
:100CD80020D1954B43F2C822C3F8AC20022000F083
:100CE8009DFF0346002B05D141F2883200218F4831
:100CF800FFF748FD8E4B1B8801339AB28C4B1A8044
:100D08008B4B1B88012B05D9864B01221A70884B07
:100D180000221A80022000F081FF0346002B02D037
:100D28008248FFF740FEFFF789FF0346002B15D1E5
:100D3800804B1B8801339AB27E4B1A807D4B1B88EF
:100D4800B3F57A7FC0F08C817A4B00221A80744BFD
:100D580002221A70734B00221A7081E1754B00222F
:100D68001A807DE16F4B1B78002B45D1FFF766FF9A
:100D78000346002B40D16C4B4DF2D8625A616A4B46
:100D880046F660521A66684B43F2C822C3F8AC2094
:100D9800002000F043FF0346002B05D140F2DC524F
:100DA80000216148FFF7EEFC012000F037FF034601
:100DB800002B05D140F2DC5200215F48FFF7E2FC2E
:100DC800022000F02BFF0346002B05D140F2DC5235
:100DD80000215648FFF7D6FC554B1B8801339AB2C1
:100DE800534B1A80524B1B88012B05D94D4B0122BE
:100DF8001A704F4B00221A80002000F00FFF0346A4
:100E0800002B02D04848FFF7CEFD012000F006FF76
:100E18000346002B02D04848FFF7C5FD022000F02A
:100E2800FDFE0346002B02D04048FFF7BCFDFFF74C
:100E380005FF0346002B15D13E4B1B8801339AB2A0
:100E48003C4B1A803B4B1B88B3F57A7FC0F00A8174
:100E5800384B00221A80324B03221A70314B002281
:100E68001A70FFE0334B00221A80FBE02D4B1B78F1
:100E7800002B21D12C4B00225A612B4B00221A66E1
:100E8800294B0022C3F8AC204FF47A6240F6B831FF
:100E98002548FFF777FC4FF47A6240F6B8312648C8
:100EA800FFF770FC4FF47A6240F6B8311F48FFF73D
:100EB80069FC1C4B01221A70FFF7C0FE0346002B89
:100EC80040F0D2801B4B1B8801339AB2194B1A8011
:100ED800184B1B88B3F57A7FC0F0C680154B0022EB
:100EE8001A800F4B04221A700E4B00221A700E4BF8
:100EF8005B6903F57A731A460B4B5A610A4B1B6EF2
:100F080003F57A731A46084B1A66074BD3F8AC30C8
:100F180003F57A731A46044BC3F8AC20A4E000BF6B
:100F28009C0200209D020020940100202C02002039
:100F38009E020020A0020020E00100204F4B1B78F9
:100F4800002B20D14FF47A7200214D48FFF71AFC8C
:100F58004FF47A7200214B48FFF714FC4FF47A7271
:100F680000214948FFF70EFC454B012283F8482031
:100F7800434B012283F89420414B012283F8E0205F
:100F88003E4B01221A70002000F048FE0346002B59
:100F980002D03B48FFF707FD012000F03FFE034663
:100FA800002B02D03748FFF7FEFC022000F036FE87
:100FB8000346002B02D03448FFF7F5FCFFF73EFE4E
:100FC8000346002B52D1314B1B8801339AB22F4B69
:100FD8001A802E4B1B88B3F57A7F47D32B4B002200
:100FE8001A80264B00221A70294B05221A70FFF727
:100FF800E9FA3BE0214B1B78002B14D14FF47A72AD
:1010080064211F48FFF7BEFB4FF47A7264211D4824
:10101800FFF7B8FB4FF47A7264211B48FFF7B2FB65
:10102800164B01221A70FFF709FE0346002B1FD149
:10103800164B1B8801339AB2144B1A80134B1B882A
:10104800B3F57A7F14D3114B00221A800B4B002280
:101058001A700F4B00221A7001230BE000BF08E042
:1010680000BF06E000BF04E000BF02E000BF00E0F0
:1010780000BF002318460837BD4680BD9D020020EA
:1010880094010020E00100202C020020A002002092
:101098009C02002080B58AB000AFF860B9607A6021
:1010A8005D4B5B69FA689A4208DD5B4B5B69FA68DD
:1010B800D31A07EE903AF8EEE77A07E0564B5A69EA
:1010C800FB68D31A07EE903AF8EEE77AC7ED077A8D
:1010D800514B1B6EBA689A4208DD4F4B1B6EBA68BB
:1010E800D31A07EE903AF8EEE77A07E04A4B1A6E01
:1010F800BB68D31A07EE903AF8EEE77AC7ED067A9E
:1011080097ED077AD7ED067AB4EEE77AF1EE10FAA2
:1011180001DDFB6900E0BB697B61404BD3ED077AD9
:10112800FCEEE77A17EE902A79683D48FFF72AFB2C
:10113800D7ED057AF5EE407AF1EE10FA01D10023E9
:1011480065E0364B93ED017A344BD3ED047AB4EE77
:10115800E77AF1EE10FA02DD304B5B6801E02F4BC5
:101168001B693B6197ED047AD7ED077A67EE276A2A
:1011780097ED057AC6EE877AFDEEE77A17EE903A94
:101188007B627B6A07EE903AB8EEE77A234BD3EDA1
:10119800017AB4EEE77AF1EE10FA07DD1F4BD3EDD2
:1011A800017AFDEEE77A17EE903A7B6297ED047AC2
:1011B800D7ED067A67EE276A97ED057AC6EE877A45
:1011C800FDEEE77A17EE903A3B623B6A07EE903AFB
:1011D800B8EEE77A114BD3ED047AB4EEE77AF1EE84
:1011E80010FA07DD0D4BD3ED047AFDEEE77A17EE22
:1011F800903A3B627B6A1A46F9680748FFF7C2FAD9
:101208003B6A1A46B9680748FFF7BCFA0123184633
:101218002837BD4680BD00BF940100207802002019
:101228002C020020E001002080B584B000AF034606
:101238003A60FB710B46BB7101F06CFC0346002B56
:101248005CD0BB79032B4FD0032B59DC012B02D088
:10125800022B17D054E0FB794C2202FB03F32A4AF5
:101268009818FB79284A4C2101FB03F313444433B3
:101278001B683A6802FB03F340F6B8321946FFF7D9
:1012880081FA3EE03B68002B19D1FB791E4A4C21BC
:1012980001FB03F3134414331B680A2B38BF0A23DA
:1012A8000A3BFB60FB794C2202FB03F3164A13440A
:1012B80041F28832F9681846FFF764FA21E0FB79B1
:1012C8004C2202FB03F3104A9818FB790E4A4C2172
:1012D80001FB03F3134414331B680A3341F28832C9
:1012E8001946FFF74FFA0CE0FB794C2202FB03F397
:1012F800054A13441846FFF756FB02E000BF00E01A
:1013080000BF1037BD4680BD9401002080B584B071
:1013180000AF78600023FB600023BB607B6893F814
:101328003130DBB2013B042B00F2AE8001A252F84F
:1013380023F000BF511300088113000805140008AA
:10134800231400086F1400087868FFF7A7FA7B6871
:1013580093F84830DBB2012B04D17B68052283F86F
:10136800312003E07B68022283F831207B685B6BC5
:101378005A1C7B685A638EE07B685B6B642B16D9BA
:101388007B681A6A7B689A637B685B6B5A1E7B680A
:101398005A637B68032283F831207B689B6AB3F524
:1013A8007A7F19D97B689A6A7B685A6214E07B68ED
:1013B80093ED0B7A7B685B6B924A9B001344D3EDE9
:1013C800007A67EE277AFCEEE77A17EE903A03F593
:1013D8007A731A467B685A627B685B6B5A1C7B6817
:1013E8005A637B68DB691A467B681B6A5B009A4212
:1013F8004CD87B68042283F8312047E07B68DB699E
:101408001A467B681B6AD21A7B689B6B9A423FD844
:101418007B68042283F831203AE07B685B6B5A1EB4
:101428007B685A637B685B6B002B02DC7B6800225D
:101438005A637B685B6B642B2CD87B6893ED0B7AC3
:101448007B685B6B6F4A9B001344D3ED007A67EEB1
:10145800277AFCEEE77A17EE903A03F57A731A4684
:101468007B685A6216E07B685B691A4640F2DC5377
:101478009A4204D97B684FF47A725A620BE07B680F
:1014880040F2F3125A6206E000BF04E000BF02E037
:1014980000BF00E000BF7B6893F83C30DBB2012B53
:1014A80040F0EA807B685B6AB3F5F97F36D97B68E0
:1014B8005B6A1A46544BB3FBF2F3BB607B681B684C
:1014C8001B68BA68DA627B681B68BA68DA607B688E
:1014D8009B68002B06D17B681B681B68BA6852089A
:1014E8005A631BE07B689B68042B06D17B681B68EA
:1014F8001A68BB685B08936310E07B689B68082BDD
:1015080006D17B681B681A68BB685B08D36305E073
:101518007B681B681A68BB685B0813647B685B6838
:101528001B685B6AFB607B6893F83030002B12D134
:10153800FA687B681B6AD31A7A68526913441A4698
:101548007B685A617B685B697A6892F832201A4432
:101558007B685A6111E0FA687B681B6AD31A7A685B
:101568005269D31A1A467B685A617B685B697A6844
:1015780092F832209A1A7B685A617B68002283F8B5
:1015880032207B6893F840007B685B6999B27B687E
:101598005B6A9AB27B6893F83130DBB20BF084FA5D
:1015A800FA687B681A627B6893F83D30012B48D152
:1015B8007B68002283F848207B68002283F83D205E
:1015C8007B68002283F83C207B689B68002B05D150
:1015D8007B681B681B6800225A631CE07B689B6859
:1015E800042B05D17B681B681A680023936312E0FB
:1015F8007B689B68082B09D17B681B681A680023E5
:10160800D36308E0CCD6000840420F007B681B6813
:101618001A68002313647B681B681B6840F2E73272
:10162800DA627B681B6840F2E732DA607B681B6825
:101638001B685A697B681B681B6842F001025A6183
:101648001AE07B685A697B689B699A4203D07B6879
:101658005B6B002B10D17B6800225A627B680022EA
:1016680083F831207B68012283F83D207B680022C3
:101678005A637B6800229A6300BF1037BD4680BD5D
:1016880080B582B000AF00237B600BE07B684C2202
:1016980002FB03F3074A13441846FFF737FE7B683B
:1016A80001337B607B68022BF0DD00BF00BF083789
:1016B800BD4680BD9401002080B582B000AF0346CE
:1016C800FB71FB791A464FF400710C4802F0A4FE36
:1016D800FB791A464FF40071084802F09DFE4FF45A
:1016E8000071064802F080FE0346002B01D001235A
:1016F80000E0002318460837BD4680BD00000240C0
:1017080080B582B000AF0346FB71FB791A46802191
:101718000B4802F081FEFB791A468021084802F046
:101728007BFE8021064802F05FFE0346002B01D0B5
:10173800012300E0002318460837BD4680BD00BFDE
:101748000008024080B582B000AF0346FB71FB7908
:101758001A464FF400710C4802F05EFEFB791A46F7
:101768004FF40071084802F057FE4FF40071064824
:1017780002F03AFE0346002B01D0012300E00023CB
:1017880018460837BD4680BD0008024080B582B0C3
:1017980000AF214B1B6801331F4A1360FFF770FF2E
:1017A8001D4B1B686FF00042934230D31A4B002246
:1017B8001A6000237B6027E0184A7B681B011344EA
:1017C80000221A60154A7B681B0113440C331B68FE
:1017D800002B0FDA114A7B681B0113440C331B687A
:1017E80003F1004301330D497A6812010A440C32AF
:1017F800136006E0094A7B681B0113440C3300227E
:101808001A607B6801337B607B68052BD4DD00BFE1
:101818000837BD4680BD00BF04030020A402002095
:1018280080B483B000AF03463960FB71FB79164A78
:101838001B011344043301221A70FB79124A1B015D
:10184800134408333A681A60FB79104A12680E4943
:101858001B010B441A60FB790B4A1B0113441968DE
:10186800FB79094A1B01134408331A68FB790A44B7
:1018780005491B010B440C331A6000BF0C37BD46E9
:101888005DF8047B704700BFA40200200403002019
:1018980080B582B000AF0346FB71FB79164A126827
:1018A80016491B010B441A60FB79144A1B011344A7
:1018B80004331B78012B19D1FB79104A1B011344FF
:1018C8001A68FB790D491B010B440C331B689A42BB
:1018D8000CD3FB79094A1B01134408331A68FB79B6
:1018E80011461846FFF79CFF012300E00023184625
:1018F8000837BD4680BD00BF04030020A4020020B5
:1019080080B483B000AF5A4B1B693B6000237B60F7
:101918003B6803F00103002B03D07B6843F001030D
:101928007B603B6803F00203002B03D07B6843F025
:1019380002037B603B6803F00403002B03D07B6841
:1019480043F004037B603B6803F00803002B03D0DB
:101958007B6843F008037B603B6803F01003002BAF
:1019680003D07B6843F010037B603B6803F02003DF
:10197800002B03D07B6843F020037B603D4B1B6941
:101988003B603B6803F00103002B03D07B6843F006
:1019980040037B603B6803F00203002B03D07B68A5
:1019A80043F080037B603B6803F48053002B03D033
:1019B8007B6843F400337B602F4B1B693B603B68BB
:1019C80003F08003002B03D07B6843F480737B60B3
:1019D8003B6803F48073002B03D07B6843F40073E7
:1019E8007B603B6803F40073002B03D07B6843F4EF
:1019F80080637B603B6803F48063002B03D07B68C3
:101A080043F400637B603B6803F40063002B03D05E
:101A18007B6843F480537B603B6803F48053002B5E
:101A280003D07B6843F400537B603B6803F40053A6
:101A3800002B03D07B6843F480437B603B6803F44E
:101A48008043002B03D07B6843F400437B603B68F2
:101A580003F40043002B03D07B6843F480337B609E
:101A68007B6818460C37BD465DF8047B704700BF9D
:101A780000080240000402400010024080B584B013
:101A880000AFFFF73DFFB8600023FB6041E0012293
:101A9800FB6802FA03F31A46BB681340002B01D017
:101AA800012300E00023FB711E4AFB681344123334
:101AB8001B78DBB2FA799A421CD11A4AFB681344A4
:101AC80024331B78DBB2092B0ED8164AFB68134463
:101AD80024331B78DBB20133D9B2124AFB681344B2
:101AE80024330A461A700BE00E4AFB681344FA794D
:101AF8001A7005E00B4AFB681344243300221A705D
:101B0800084AFB6813441233FA791A70FB680133E8
:101B1800FB60FB68112BBAD900BF00BF1037BD4668
:101B280080BD00BF0803002080B582B000AF00234D
:101B38007B6000233B6010E0174A3B6813441B7826
:101B4800DBB2002B06D001223B6802FA03F37A6865
:101B580013437B603B6801333B603B68112BEBD937
:101B68007B68DBB2194600200AF0F2FF7B681B0A8B
:101B7800DBB2194601200AF0EBFF7B681B0CDBB2D5
:101B880003F00303DBB2194602200AF0E1FF00BFAD
:101B98000837BD4680BD00BF0803002090B585B05A
:101BA80000AF02200AF0BEFF03461C4603200AF0DD
:101BB800B9FF03461B021C4304200AF0B3FF034687
:101BC8001B042343BB600023FB710023FB601BE065
:101BD800BA68FB6822FA03F303F00103002B0CBF79
:101BE80001230023DBB2FB710B4AFB6852F8233058
:101BF800002B06D0084AFB6852F82330FA791046C1
:101C08009847FB680133FB60FB68112BE0D900BFE4
:101C180000BF1437BD4690BD0000002080B483B0DB
:101C280000AF0346FB71FB79044AD35CDBB218466C
:101C38000C37BD465DF8047B704700BF08030020E1
:101C480080B582B000AF0346FB71FB791A460821C4
:101C5800034802F0E1FB00BF0837BD4680BD00BF66
:101C6800000C024080B582B000AF0346FB71FB79DF
:101C78001A461021034802F0CFFB00BF0837BD46C3
:101C880080BD00BF000C024080B582B000AF0346A3
:101C9800FB71FB791A462021034802F0BDFB00BF07
:101CA8000837BD4680BD00BF000C024080B582B039
:101CB80000AF0346FB71FB791A464021034802F046
:101CC800ABFB00BF0837BD4680BD00BF000C02401B
:101CD80080B582B000AF0346FB71FB791A468021BC
:101CE800034802F099FB00BF0837BD4680BD00BF1E
:101CF800000C024080B582B000AF0346FB71FB794F
:101D08001A460821034802F087FB00BF0837BD4682
:101D180080BD00BF0004024080B582B000AF03461A
:101D2800FB71FB791A461021034802F075FB00BFCE
:101D38000837BD4680BD00BF0004024080B582B0B0
:101D480000AF0346FB71FB791A462021034802F0D5
:101D580063FB00BF0837BD4680BD00BF00040240DA
:101D680080B582B000AF0346FB71FB791A464FF489
:101D78008071034802F050FB00BF0837BD4680BDA4
:101D88000004024080B582B000AF0346FB71FB79C6
:101D98001A464FF40071034802F03EFB00BF0837B3
:101DA800BD4680BD0004024080B582B000AF034646
:101DB800FB71FB791A460121034802F02DFB00BF95
:101DC8000837BD4680BD00BF0010024080B582B014
:101DD80000AF0346FB71FB791A460221034802F063
:101DE8001BFB00BF0837BD4680BD00BF0010024086
:101DF80080B582B000AF0346FB71FB791A46042117
:101E0800034802F009FB00BF0837BD4680BD00BF8C
:101E18000010024080B582B000AF0346FB71FB7929
:101E28001A460821034802F0F7FA00BF0837BD46F2
:101E380080BD00BF0010024080B582B000AF0346ED
:101E4800FB71FB791A461021034802F0E5FA00BF3E
:101E58000837BD4680BD00BF0010024080B582B083
:101E680000AF0346FB71FB791A462021034802F0B4
:101E7800D3FA00BF0837BD4680BD00BF001002403E
:101E880080B582B000AF0346FB71FB791A4640214A
:101E9800034802F0C1FA00BF0837BD4680BD00BF45
:101EA8000010024080B582B000AF0346FB71FB7999
:101EB8001A464FF40051034802F0AEFA00BF083743
:101EC800BD4680BD0008024080B500AF01F046FB6A
:101ED80000F042F800F0BAFC00F090FC0AF046F876
:101EE80000F0A4F800F0CEF900F05AFA00F056F924
:101EF80000F078FB00F0CAFA00F03EFB00F02AFC84
:101F080000F052FCFEF7D4FAFEF7D6FB01210020C0
:101F1800FFF786FC41F288310320FFF781FC0AF0C5
:101F280019FD0B4804F0E4F90020FFF7B1FC034663
:101F38001A46084B1A70074B1B78012B05D100F085
:101F4800A7FEFFF72BFEFFF7EFFD00F0F5FEEBE72E
:101F5800A80400208806002080B594B000AF07F1DF
:101F680020033022002118460BF0ECFA07F10C038D
:101F780000221A605A609A60DA601A610023BB6016
:101F8800284B1B6C274A43F080531364254B1B6C6A
:101F980003F08053BB60BB6800237B60224B1B6847
:101FA800214A43F4804313601F4B1B6803F48043AA
:101FB8007B607B6801233B624FF480337B620223A2
:101FC800BB634FF48003FB6304233B64A8237B6457
:101FD8000223BB640723FB6407F12003184603F0C0
:101FE8009FFC0346002B01D000F087FD0F23FB6008
:101FF80002233B6100237B614FF4A053BB614FF484
:10200800A053FB6107F10C030521184603F000FFFC
:102018000346002B01D000F070FD00BF5037BD46CD
:1020280080BD00BF003802400070004080B59AB003
:1020380000AF07F1580300221A605A609A60DA600C
:1020480007F1440300221A605A609A60DA601A6144
:1020580007F13C0300221A605A6007F120030022AE
:102068001A605A609A60DA601A615A619A613B464E
:102078002022002118460BF065FA464B464A1A60A2
:10208800444B53225A60434B00229A60414B40F222
:10209800E732DA603F4B00221A613E4B00225A6158
:1020A8003C4B80229A613B4804F0D2F80346002B4F
:1020B80001D000F022FD4FF48053BB6507F15803AF
:1020C8001946344804F058FC0346002B01D000F0B0
:1020D80014FD304804F07CF90346002B01D000F0D1
:1020E8000CFD05237B641023BB6407F144031946E8
:1020F800284804F008FD0346002B01D000F0FDFC41
:102108004023FB6380233B6407F13C0319462148C5
:1021180005F014F90346002B01D000F0EEFC602313
:102128003B6200237B620023BB620023FB62002327
:102138003B6300237B630023BB6307F1200300227A
:102148001946144804F056FB0346002B01D000F052
:10215800D4FC00233B6000237B600023BB6000238A
:10216800FB6000233B614FF400537B610023FB615C
:102178003B461946074805F05DF90346002B01D098
:1021880000F0BBFC034800F09FFF00BF6837BD4666
:1021980080BD00BF400300200000014080B58EB024
:1021A80000AF07F1240300221A605A609A60DA60CF
:1021B8001A6107F11C0300221A605A603B4600228C
:1021C8001A605A609A60DA601A615A619A612C4BF7
:1021D8004FF080421A602A4B00225A60284B002296
:1021E8009A60274B40F2E732DA60254B00221A61E9
:1021F800234B80229A61224804F02AF80346002BD8
:1022080001D000F07AFC1E4804F0E2F80346002BE7
:1022180001D000F072FC07237B620023BB6207F148
:1022280024031946164804F06EFC0346002B01D01F
:1022380000F063FC5023FB6180233B6207F11C0321
:1022480019460F4805F07AF80346002B01D000F034
:1022580054FC60233B6000237B600023BB600023A9
:102268003B613B4604221946054804F0C3FA03467D
:10227800002B01D000F041FC00BF3837BD4680BDBF
:102288008803002080B592B000AF07F13803002220
:102298001A605A609A60DA6007F1240300221A6013
:1022A8005A609A60DA601A6107F11C0300221A600A
:1022B8005A603B4600221A605A609A60DA601A61D6
:1022C8005A619A61344B354A1A60334B53225A602B
:1022D800314B00229A60304B40F2E732DA602E4BE5
:1022E80000221A612C4B80229A612B4803F0B0FF20
:1022F8000346002B01D000F000FC4FF48053BB6371
:1023080007F138031946244804F036FB0346002B2E
:1023180001D000F0F2FB204804F05AF80346002BE5
:1023280001D000F0EAFB05237B622023BB6207F1A2
:1023380024031946184804F0E6FB0346002B01D095
:1023480000F0DBFB4023FB6180233B6207F11C03A9
:102358001946114804F0F2FF0346002B01D000F0A3
:10236800CCFB60233B6000237B600023BB60002321
:102378003B613B4600221946074804F03BFA0346F6
:10238800002B01D000F0B9FB034800F09DFE00BF10
:102398004837BD4680BD00BFD00300200004004080
:1023A80080B58EB000AF07F1240300221A605A608E
:1023B8009A60DA601A6107F11C0300221A605A60F9
:1023C8003B4600221A605A609A60DA601A615A61C4
:1023D8009A612C4B2C4A1A602A4B00225A60294BCE
:1023E80000229A60274B40F2E732DA60254B002240
:1023F8001A61244B80229A61224803F029FF034680
:10240800002B01D000F079FB1E4803F0E1FF0346E2
:10241800002B01D000F071FB07237B623023BB62E5
:1024280007F124031946174804F06DFB0346002BF7
:1024380001D000F062FB4023FB6180233B6207F17F
:102448001C0319460F4804F079FF0346002B01D0FE
:1024580000F053FB60233B6000237B600023BB60DC
:1024680000233B613B4600221946064804F0C2F9A6
:102478000346002B01D000F040FB00BF3837BD46B3
:1024880080BD00BF180400200008004080B58EB051
:1024980000AF07F1240300221A605A609A60DA60DC
:1024A8001A6107F11C0300221A605A603B46002299
:1024B8001A605A609A60DA601A615A619A612C4B04
:1024C8002C4A1A602A4B00225A60294B00229A6033
:1024D800274B40F2E732DA60254B00221A61244B81
:1024E80080229A61224803F0B3FE0346002B01D0F4
:1024F80000F003FB1E4803F06BFF0346002B01D0DE
:1025080000F0FBFA07237B621023BB6207F1240368
:102518001946174804F0F7FA0346002B01D000F0DB
:10252800ECFA4023FB6180233B6207F11C03194648
:102538000F4804F003FF0346002B01D000F0DDFA3A
:1025480060233B6000237B600023BB6000233B616A
:102558003B4600221946064804F04CF90346002B76
:1025680001D000F0CAFA00BF3837BD4680BD00BFB1
:1025780060040020000C004080B582B000AF3B46EC
:1025880000221A605A60154B154A1A60134B5322E1
:102598005A60124B00229A60104B40F2E732DA6020
:1025A8000E4B80229A610D4803F052FE0346002B21
:1025B80001D000F0A2FA00233B6000237B603B4679
:1025C8001946064804F0BAFE0346002B01D000F075
:1025D80094FA00BF0837BD4680BD00BFA80400209C
:1025E8000014004080B59AB000AF07F158030022EC
:1025F8001A605A609A60DA6007F1440300221A6090
:102608005A609A60DA601A6107F13C0300221A6086
:102618005A6007F1200300221A605A609A60DA6053
:102628001A615A619A613B462022002118460AF035
:1026380089FF464B464A1A60444B53225A60434B23
:1026480000229A60414B40F2E732DA603F4B0022A9
:102658001A613E4B00225A613C4B80229A613B48EA
:1026680003F0F6FD0346002B01D000F046FA4FF4C4
:102678008053BB6507F158031946344804F07CF9C8
:102688000346002B01D000F038FA304803F0A0FED2
:102698000346002B01D000F030FA05237B64202389
:1026A800BB6407F144031946284804F02CFA034692
:1026B800002B01D000F021FA6023FB6380233B64E8
:1026C80007F13C031946214804F038FE0346002B65
:1026D80001D000F012FA60233B6200237B620023E2
:1026E800BB620023FB6200233B6300237B63002360
:1026F800BB6307F1200308221946144804F07AF84E
:102708000346002B01D000F0F8F900233B600023BA
:102718007B600023BB600023FB6000233B614FF418
:1027280000537B610023FB613B461946074804F0D0
:1027380081FE0346002B01D000F0DFF9034800F0CA
:10274800C3FC00BF6837BD4680BD00BFF004002051
:102758000004014080B500AF114B124A1A60104BBB
:102768004FF4E1325A600E4B00229A600C4B002263
:10277800DA600B4B00221A61094B0C225A61084B94
:1027880000229A61064B0022DA61054804F0B8FE7F
:102798000346002B01D000F0B0F900BF80BD00BF98
:1027A800380500200044004080B500AF114B124AA4
:1027B8001A60104B4FF4E1325A600E4B00229A60B7
:1027C8000C4B0022DA600B4B00221A61094B0C22D9
:1027D8005A61084B00229A61064B0022DA610548CB
:1027E80004F08EFE0346002B01D000F086F900BFEE
:1027F80080BD00BF800500200048004080B582B041
:1028080000AF00237B60104B1B6B0F4A43F400138F
:1028180013630D4B1B6B03F400137B607B68002272
:1028280002210C2001F00BF80C2001F024F8002202
:102838000221102001F003F8102001F01CF800BF5D
:102848000837BD4680BD00BF0038024080B58CB057
:1028580000AF07F11C0300221A605A609A60DA6020
:102868001A610023BB61994B1B6B984A43F0100314
:102878001363964B1B6B03F01003BB61BB6900230A
:102888007B61924B1B6B914A43F0040313638F4B9C
:102898001B6B03F004037B617B6900233B618B4B5B
:1028A8001B6B8A4A43F080031363884B1B6B03F04E
:1028B80080033B613B690023FB60844B1B6B834AAD
:1028C80043F001031363814B1B6B03F00103FB60AF
:1028D800FB680023BB607D4B1B6B7C4A43F0020303
:1028E80013637A4B1B6B03F00203BB60BB680023C6
:1028F8007B60764B1B6B754A43F008031363734B7D
:102908001B6B03F008037B607B6801227F21704802
:1029180001F082FD01224FF400516E4801F07CFD68
:1029280000224FF420716B4801F076FD00224FF42D
:102938000241694801F070FD0122F821674801F061
:102948006BFD01224FF44E71654801F065FD7F2350
:10295800FB6101233B6201237B620023BB6207F119
:102968001C0319465A4801F0A3FB4FF40053FB61BE
:1029780001233B6201237B620023BB6207F11C0336
:102988001946544801F094FB0F23FB614FF4881358
:102998003B6200237B6207F11C0319464D4801F096
:1029A80087FB3023FB6100233B6200237B6207F136
:1029B8001C031946474801F07BFB41F20303FB6106
:1029C80000233B6200237B6207F11C03194644483D
:1029D80001F06EFB4FF68073FB6100233B6200231E
:1029E8007B6207F11C031946394801F061FB4FF47B
:1029F8002073FB6101233B6200237B620323BB62DC
:102A080007F11C031946334801F052FB4FF40073D9
:102A1800FB6101233B6200237B620323BB6207F156
:102A28001C0319462C4801F043FB4FF40043FB619B
:102A380001233B6200237B620023BB6207F11C0376
:102A48001946254801F034FBF823FB6101233B625A
:102A580001237B620023BB6207F11C0319461F4850
:102A680001F026FB4FF44E73FB6101233B62012307
:102A78007B620023BB6207F11C031946184801F06A
:102A880017FB00220021062000F0D9FE062000F0E6
:102A9800F2FE00220021072000F0D1FE072000F0FE
:102AA800EAFE00220021082000F0C9FE082000F0FC
:102AB800E2FE00220021092000F0C1FE092000F0FA
:102AC800DAFE00BF3037BD4680BD00BF0038024087
:102AD800001002400008024000000240000C0240C2
:102AE8000004024080B483B000AF0346FB8000BFFF
:102AF8000C37BD465DF8047B704780B400AF72B6F2
:102B080000BF00BFFDE780B400AF00BFBD465DF861
:102B1800047B704780B400AF034B1B78DBB21846C8
:102B2800BD465DF8047B70478C06002080B582B0F6
:102B380000AF0023FB7000237B608DE04B4B1B68CC
:102B48001B781A467B6842FA03F303F00103002B53
:102B580014BF01230023DBB2FB70FB78012B39D1B2
:102B680043497A6813465B0013449B000B440433C3
:102B78001B68591C3E487A6813465B0013449B0047
:102B88000344043319603A497A6813465B001344D6
:102B98009B000B4404331B68952B51D934497A6840
:102BA80013465B0013449B000B4408331B78002B2F
:102BB80046D12F497A6813465B0013449B000B44A7
:102BC800083301221A702B4A7B6852F823300120FF
:102BD800984735E026497A6813465B0013449B0002
:102BE8000B441B78012B2BD121497A6813465B00D3
:102BF80013449B000B4404331B68952B06D81D4ACD
:102C08007B6852F823300220984705E0194A7B6810
:102C180052F823300320984715497A6813465B0019
:102C280013449B000B44043300221A6010497A684D
:102C380013465B0013449B000B44083300221A70B0
:102C48000B497A6813465B0013449B000B44FA78DF
:102C58001A707B6801337B607B68052B7FF66EAF4B
:102C680000BF00BF0837BD4680BD00BF740100200B
:102C7800900600204800002080B400AF034B0122DA
:102C88001A7000BFBD465DF8047B70478A060020B5
:102C980080B582B000AFFDF74BFC224B1B78012BAF
:102CA8000ED1FDF7C9FE0320FEF7B8FF0346002B3F
:102CB80033D11C4B00221A701B4B01221A702CE0D6
:102CC8001A4B1B681B78FB71FB7993FAA3F2B2FAD3
:102CD80082F2002B01D14FF0FF32531CDBB2013BD3
:102CE800DBB25AB2124B1A70114B93F90030002B19
:102CF80010DB0F4B93F900301A460E4B53F8223075
:102D0800002B07D00A4B93F900301A46094B53F8A9
:102D180022309847FFF70AFF00E000BF0837BD469A
:102D280080BD00BF8A0600208B06002070010020AD
:102D3800890600206000002080B500AFFEF79EFEE7
:102D48000E4B1B78DBB2002B15D00D4B00221A70EE
:102D58000C4B00221A700948FDF790FF0346002B20
:102D680009D0FDF72FFC054B00221A70064B0122F3
:102D78001A7009F017FF00BF80BD00BF8B06002046
:102D88008D0600208E0600208C06002080B400AF3F
:102D980000BFBD465DF8047B704780B400AF00BF3C
:102DA800BD465DF8047B704780B582B000AF03462E
:102DB800FB71FB79002219460020FEF735FA00BFA7
:102DC8000837BD4680BD80B582B000AF0346FB71B1
:102DD800FB79012219460020FEF726FA00BF0837C2
:102DE800BD4680BD80B582B000AF0346FB71FB795C
:102DF800002219460120FEF717FA00BF0837BD4622
:102E080080BD80B582B000AF0346FB71FB7901221B
:102E180019460120FEF708FA00BF0837BD4680BDF5
:102E280080B582B000AF0346FB71FB7900221946DA
:102E38000220FEF7F9F900BF0837BD4680BD80B50E
:102E480082B000AF0346FB71FB79012219460220CC
:102E5800FEF7EAF900BF0837BD4680BD80B500AF70
:102E6800FFF758FE0346002B17D00D4BD3ED007A21
:102E7800BDEEE77A0A4BD3ED037AFDEEE76A084B1D
:102E8800D3ED067AFDEEE77A17EE902A16EE901A41
:102E980017EE100AFEF7FEF800E000BF80BD00BF85
:102EA8007802002080B400AF064B1B78DBB2002B01
:102EB80002D1044B01221A7000BFBD465DF8047BA5
:102EC800704700BF8B06002080B400AF034B01227F
:102ED8001A7000BFBD465DF8047B70478A06002063
:102EE80080B582B000AF00237B60214B5B6C204A29
:102EF80043F4804353641E4B5B6C03F480437B6054
:102F08007B6800233B601A4B1B6C194A43F08053C3
:102F18001364174B1B6C03F080533B603B68002223
:102F280001216FF00B0000F08AFC002201216FF0F4
:102F38000A0000F084FC002201216FF0090000F073
:102F48007EFC002201216FF0040000F078FC0022D2
:102F580001216FF0030000F072FC002201216FF0E4
:102F6800010000F06CFC00BF0837BD4680BD00BF03
:102F78000038024080B58AB000AF78607B681B6873
:102F88004A4A93420ED100237B62494B5B6C484A04
:102F980043F001035364464B5B6C03F001037B620F
:102FA8007B6A7EE07B681B68B3F1804F0ED10023FB
:102FB8003B623F4B1B6C3E4A43F0010313643C4B9E
:102FC8001B6C03F001033B623B6A6AE07B681B6889
:102FD800384A93420ED10023FB61354B1B6C344AAF
:102FE80043F002031364324B1B6C03F00203FB61D2
:102FF800FB6956E07B681B682F4A93420ED1002379
:10300800BB612B4B1B6C2A4A43F004031364284B07
:103018001B6C03F00403BB61BB6942E07B681B685F
:10302800264A93420ED100237B61214B1B6C204A18
:1030380043F0080313641E4B1B6C03F008037B6109
:103048007B692EE07B681B681D4A934216D10023DA
:103058003B61174B1B6C164A43F020031364144B57
:103068001B6C03F020033B613B69002201213720E0
:1030780000F0E5FB372000F0FEFB12E07B681B68E0
:10308800104A93420DD10023FB60094B5B6C084A40
:1030980043F002035364064B5B6C03F00203FB60CE
:1030A800FB6800BF2837BD4680BD00BF0000014057
:1030B800003802400004004000080040000C0040B6
:1030C800001400400004014080B58AB000AF786069
:1030D80007F1140300221A605A609A60DA601A61D4
:1030E8007B681B68374A93421FD100233B61364BEC
:1030F8001B6B354A43F001031363334B1B6B03F01F
:1031080001033B613B694FF480737B610223BB6120
:103118000023FB6100233B6201237B6207F1140358
:1031280019462A4800F0C4FF47E07B681B68284A14
:1031380093421ED10023FB60234B1B6B224A43F0B2
:1031480004031363204B1B6B03F00403FB60FB6851
:1031580040237B610223BB610023FB6100233B62A8
:1031680002237B6207F1140319461A4800F0A0FFF6
:1031780023E07B681B68184A93421ED10023BB607A
:10318800114B1B6B104A43F0040313630E4B1B6B6C
:1031980003F00403BB60BB684FF480737B610223B8
:1031A800BB610023FB6100233B6203237B6207F1C1
:1031B80014031946074800F07BFF00BF2837BD46B7
:1031C80080BD00BF000001400038024000000240FE
:1031D80000040040000802400004014080B58CB0A3
:1031E80000AF786007F11C0300221A605A609A60E9
:1031F800DA601A617B681B68684A934262D10023CF
:10320800BB61674B1B6C664A43F400331364644B21
:103218001B6C03F40033BB61BB6900237B61604B0B
:103228001B6B5F4A43F0010313635D4B1B6B03F099
:1032380001037B617B690C23FB6102233B62002352
:103248007B620323BB620723FB6207F11C03194659
:10325800544800F02DFF544B544A1A60524B4FF01B
:1032680000625A60504B00229A604F4B0022DA608D
:103278004D4B4FF480621A614B4B00225A614A4B06
:1032880000229A61484B0022DA61474B00221A62F9
:10329800454B00225A62444800F008FB0346002BC5
:1032A80001D0FFF72AFC7B683F4ADA633E4A7B6815
:1032B800936300220221262000F0C1FA262000F0A4
:1032C800DAFA67E07B681B68394A934262D10023C7
:1032D8003B61334B1B6C324A43F480231364304BFD
:1032E8001B6C03F480233B613B690023FB602C4B80
:1032F8001B6B2B4A43F002031363294B1B6B03F030
:103308000203FB60FB684FF44063FB6102233B62EE
:1033180000237B620323BB620723FB6207F11C03C4
:103328001946244800F0C4FE234B244A1A60224B55
:103338004FF000625A60204B00229A601E4B002218
:10334800DA601D4B4FF480621A611B4B00225A61F0
:10335800194B00229A61184B0022DA61164B0022A1
:103368001A62154B00225A62134800F09FFA03466E
:10337800002B01D0FFF7C1FB7B680F4ADA630E4AC6
:103388007B68936300220221272000F058FA272047
:1033980000F071FA00BF3037BD4680BD00440040E0
:1033A8000038024000000240C80500208860024042
:1033B800004800400004024028060020286002401F
:1033C80080B400AF00BFFDE780B400AF00BFFDE7E9
:1033D80080B400AF00BFFDE780B400AF00BFFDE7D9
:1033E80080B400AF00BFFDE780B400AF00BFBD46AA
:1033F8005DF8047B704780B400AF00BFBD465DF840
:10340800047B704780B400AF00BFBD465DF8047B05
:10341800704780B500AF00F0F3F800BF80BD80B5FD
:1034280000AFFDF725FB012001F010F800BF80BDBB
:1034380080B500AFFDF764FB022001F007F800BF7C
:1034480080BD80B500AFFDF7A5FB042000F0FEFFAE
:1034580000BF80BD80B500AFFFF70EFC082000F06C
:10346800F5FF00BF80BD000080B500AF024800F046
:10347800B5FB00BF80BD00BF2806002080B500AFA7
:10348800024800F0ABFB00BF80BD00BFC8050020AC
:1034980080B500AF024804F067F900BF80BD00BFE7
:1034A8003805002080B500AF024804F05DF900BF80
:1034B80080BD00BF8005002080B500AFFEF766F92B
:1034C800024803F0A7F800BF80BD00BFA804002091
:1034D80080B500AF024801F015F900BF80BD00BFFC
:1034E800BC1B002080B400AF064BD3F88830054AD7
:1034F80043F47003C2F8883000BFBD465DF8047B12
:10350800704700BF00ED00E0DFF834D0FFF7EAFFB6
:103518000C480D490D4A002302E0D458C450043326
:10352800C4188C42F9D30A4A0A4C002301E01360FC
:103538000432A242FBD30AF00DF8FEF7C5FC70472F
:1035480000000220000000207801002090DA000826
:1035580078010020F0250020FEE7000080B500AFCC
:103568000E4B1B680D4A43F4007313600B4B1B682A
:103578000A4A43F480631360084B1B68074A43F404
:1035880080731360032000F04FF90F2000F008F853
:10359800FFF7A6FC0023184680BD00BF003C024090
:1035A80080B582B000AF7860124B1A68124B1B7856
:1035B80019464FF47A73B3FBF1F3B2FBF3F31846F1
:1035C80000F067F90346002B01D001230EE07B6869
:1035D8000F2B0AD8002279684FF0FF3000F02FF93E
:1035E800064A7B681360002300E001231846083769
:1035F800BD4680BD740000207C00002078000020BB
:1036080080B400AF064B1B781A46064B1B68134460
:10361800044A136000BFBD465DF8047B704700BFD5
:103628007C000020D806002080B400AF034B1B6844
:103638001846BD465DF8047B704700BFD8060020D9
:1036480080B584B000AF7860FFF7EEFFB8607B68A4
:10365800FB60FB68B3F1FF3F05D00A4B1B781A46A5
:10366800FB681344FB6000BFFFF7DEFF0246BB6840
:10367800D31AFA689A42F7D800BF00BF1037BD4680
:1036880080BD00BF7C00002080B485B000AF7860AA
:103698007B6803F00703FB600C4BDB68BB60BA6810
:1036A8004FF6FF031340BB60FB681A02BB68134365
:1036B80043F0BF6343F40033BB60044ABB68D36084
:1036C80000BF1437BD465DF8047B704700ED00E08D
:1036D80080B400AF044BDB681B0A03F007031846ED
:1036E800BD465DF8047B704700ED00E080B483B010
:1036F80000AF0346FB7197F90730002B0BDBFB7912
:1037080003F01F02074997F907305B09012000FA07
:1037180002F241F8232000BF0C37BD465DF8047B58
:10372800704700BF00E100E080B483B000AF0346FB
:103738003960FB7197F90730002B0ADB3B68DAB276
:103748000C4997F907301201D2B20B4483F80023D1
:103758000AE03B68DAB20849FB7903F00F03043B3F
:103768001201D2B20B441A7600BF0C37BD465DF881
:10377800047B704700E100E000ED00E080B489B010
:1037880000AFF860B9607A60FB6803F00703FB617B
:10379800FB69C3F10703042B28BF0423BB61FB6942
:1037A8000433062B02D9FB69033B00E000237B614D
:1037B8004FF0FF32BB6902FA03F3DA43BB681A40E1
:1037C8007B699A404FF0FF317B6901FA03F3D943D3
:1037D8007B680B40134318462437BD465DF8047BCD
:1037E8007047000080B582B000AF78607B68013B0D
:1037F800B3F1807F01D301230FE00A4A7B68013BC4
:1038080053600F214FF0FF30FFF78EFF054B00226A
:103818009A60044B07221A60002318460837BD46F1
:1038280080BD00BF10E000E080B582B000AF7860D6
:103838007868FFF729FF00BF0837BD4680BD80B50F
:1038480086B000AF0346B9607A60FB7300237B61E2
:10385800FFF73EFF78617A68B9687869FFF78EFFED
:10386800024697F90F3011461846FFF75DFF00BF73
:103878001837BD4680BD80B582B000AF0346FB71E6
:1038880097F907301846FFF731FF00BF0837BD46E4
:1038980080BD80B582B000AF78607868FFF7A2FF7E
:1038A800034618460837BD4680BD000080B586B07F
:1038B80000AF786000237B61FFF7B6FE38617B6854
:1038C800002B01D1012399E07B68022283F835207F
:1038D8007B68002283F834207B681B681A687B6841
:1038E8001B6822F001021A600FE0FFF79DFE0246F6
:1038F8003B69D31A052B08D97B6820225A657B6857
:10390800032283F83520032378E07B681B681B6853
:1039180003F00103002BE8D17B681B681B687B61FF
:103928007A69384B13407B617B685A687B689B686F
:103938001A437B68DB681A437B681B691A437B68F8
:103948005B691A437B689B691A437B68DB691A4386
:103958007B681B6A13437A6913437B617B685B6AE4
:10396800042B07D17B68DA6A7B681B6B13437A697F
:1039780013437B617B681B687A691A607B681B68E4
:103988005B697B617B6923F007037B617B685B6A0A
:103998007A6913437B617B685B6A042B17D17B6868
:1039A8009B6A7A6913437B617B68DB6A002B0ED0C4
:1039B800786800F001FB0346002B08D07B684022A2
:1039C8005A657B68012283F83520012316E07B685D
:1039D8001B687A695A61786800F0B8FA0346FB6098
:1039E8007B68DB6D3F229A40FB689A607B68002207
:1039F8005A657B68012283F835200023184618375A
:103A0800BD4680BD3F8010F080B586B000AFF8603D
:103A1800B9607A603B600023FB75FB689B6D3B6176
:103A2800FB6893F83430012B01D1022340E0FB6896
:103A3800012283F83420FB6893F83530DBB2012B80
:103A48002FD1FB68022283F83520FB6800225A65D3
:103A58003B687A68B968F86800F04AFAFB68DB6D79
:103A68003F229A403B699A60FB681B681A68FB68AA
:103A78001B6842F016021A60FB681B6C002B07D00B
:103A8800FB681B681A68FB681B6842F008021A602A
:103A9800FB681B681A68FB681B6842F001021A6021
:103AA80005E0FB68002283F834200223FB75FB7DC8
:103AB80018461837BD4680BD80B584B000AF786021
:103AC8007B689B6DFB60FFF7AFFDB8607B6893F880
:103AD8003530DBB2022B08D07B6880225A657B68C0
:103AE800002283F83420012352E07B681B681A689F
:103AF8007B681B6822F016021A607B681B685A698B
:103B08007B681B6822F080025A617B681B6C002B63
:103B180003D17B689B6C002B07D07B681B681A68F5
:103B28007B681B6822F008021A607B681B681A68A9
:103B38007B681B6822F001021A6013E0FFF774FD2E
:103B48000246BB68D31A052B0CD97B6820225A651C
:103B58007B68032283F835207B68002283F83420B1
:103B6800032315E07B681B681B6803F00103002B27
:103B7800E4D17B68DB6D3F229A40FB689A607B68E2
:103B8800012283F835207B68002283F83420002343
:103B980018461037BD4680BD80B483B000AF78604A
:103BA8007B6893F83530DBB2022B04D07B68802227
:103BB8005A6501230CE07B68052283F835207B6871
:103BC8001B681A687B681B6822F001021A600023D0
:103BD80018460C37BD465DF8047B704780B586B043
:103BE80000AF78600023BB608E4B1B688E4AA2FB37
:103BF80003239B0A7B617B689B6D3B613B691B6868
:103C0800FB607B68DB6D08229A40FB681340002B41
:103C18001AD07B681B681B6803F00403002B13D0C1
:103C28007B681B681A687B681B6822F004021A60AC
:103C38007B68DB6D08229A403B699A607B685B6D04
:103C480043F001027B685A657B68DB6D01229A406C
:103C5800FB681340002B12D07B681B685B6903F07C
:103C68008003002B0BD07B68DB6D01229A403B69F7
:103C78009A607B685B6D43F002027B685A657B68DB
:103C8800DB6D04229A40FB681340002B12D07B683E
:103C98001B681B6803F00203002B0BD07B68DB6DED
:103CA80004229A403B699A607B685B6D43F004028A
:103CB8007B685A657B68DB6D10229A40FB6813406D
:103CC800002B43D07B681B681B6803F00803002B9C
:103CD8003CD07B68DB6D10229A403B699A607B6818
:103CE8001B681B6803F48023002B18D07B681B68B3
:103CF8001B6803F40023002B08D17B681B6C002B86
:103D080024D07B681B6C786898471FE07B689B6CA5
:103D1800002B1BD07B689B6C7868984716E07B6803
:103D28001B681B6803F48073002B07D17B681B6832
:103D38001A687B681B6822F008021A607B681B6C93
:103D4800002B03D07B681B6C786898477B68DB6D19
:103D580020229A40FB681340002B00F08F807B687C
:103D68001B681B6803F01003002B00F087807B683A
:103D7800DB6D20229A403B699A607B6893F8353066
:103D8800DBB2052B36D17B681B681A687B681B6819
:103D980022F016021A607B681B685A697B681B68E8
:103DA80022F080025A617B681B6C002B03D17B6870
:103DB8009B6C002B07D07B681B681A687B681B68A4
:103DC80022F008021A607B68DB6D3F229A403B694B
:103DD8009A607B68012283F835207B68002283F88B
:103DE80034207B681B6D002B7ED07B681B6D786848
:103DF800984779E07B681B681B6803F48023002BD5
:103E08001DD07B681B681B6803F40023002B0DD1B1
:103E18007B685B6C002B31D07B685B6C786898475B
:103E28002CE000BF74000020B5814E1B7B68DB6B63
:103E3800002B23D07B68DB6B786898471EE07B6893
:103E48001B681B6803F48073002B0FD17B681B6809
:103E58001A687B681B6822F010021A607B680122CE
:103E680083F835207B68002283F834207B68DB6B7D
:103E7800002B03D07B68DB6B786898477B685B6DA9
:103E8800002B32D07B685B6D03F00103002B22D03E
:103E98007B68052283F835207B681B681A687B6875
:103EA8001B6822F001021A60BB680133BB607A69A3
:103EB8009A4207D37B681B681B6803F00103002B39
:103EC800F2D100E000BF7B68012283F835207B68CF
:103ED800002283F834207B68DB6C002B05D07B68DC
:103EE800DB6C7868984700E000BF1837BD4680BD96
:103EF80080B485B000AFF860B9607A603B60FB6859
:103F08001B681A68FB681B6822F480221A60FB6829
:103F18001B683A685A60FB689B68402B08D1FB68AD
:103F28001B687A689A60FB681B68BA68DA6007E001
:103F3800FB681B68BA689A60FB681B687A68DA6075
:103F480000BF1437BD465DF8047B704780B485B068
:103F580000AF78607B681B68DBB2103B144AA2FB99
:103F680003231B09FB60134AFB6813441B781A469A
:103F78007B68DA65FB68032B09D97B681B6823F427
:103F88007F7323F003031A1D7B689A6507E07B683B
:103F98001B6823F47F7323F003037A6893657B68B7
:103FA8009B6D18461437BD465DF8047B704700BF0B
:103FB800ABAAAAAA78D8000880B485B000AF786008
:103FC8000023FB737B689B6ABB607B689B69002B43
:103FD8001FD1BB68032B56D801A252F823F000BFAB
:103FE800F93F00080B400008F93F00088F4000081F
:103FF8007B68DB6A03F08073002B46D00123FB73D8
:1040080043E07B68DB6AB3F1C07F40D10123FB73D7
:104018003DE07B689B69B3F5005F21D1BB68032B4A
:1040280037D801A252F823F0414000084740000861
:1040380041400008594000080123FB7330E07B68C9
:10404800DB6A03F08073002B25D00123FB7322E089
:104058007B68DB6AB3F1C07F1FD10123FB731CE0CF
:10406800BB68022B03D9BB68032B03D018E00123DC
:10407800FB7315E07B68DB6A03F08073002B0ED0BE
:104088000123FB730BE000BF0AE000BF08E000BF9C
:1040980006E000BF04E000BF02E000BF00E000BF90
:1040A800FB7B18461437BD465DF8047B704700BF9C
:1040B80080B489B000AF7860396000237B61002349
:1040C8003B610023BB610023FB616BE10122FB69BB
:1040D80002FA03F37B613B681B687A6913403B6112
:1040E8003A697B699A4240F05A813B685B6803F001
:1040F8000303012B05D03B685B6803F00303022B25
:1041080030D17B689B68BB61FB695B00032202FAC4
:1041180003F3DB43BA691340BB613B68DA68FB69A8
:104128005B0002FA03F3BA691343BB617B68BA699F
:104138009A607B685B68BB610122FB6902FA03F342
:10414800DB43BA691340BB613B685B681B0903F03A
:104158000102FB6902FA03F3BA691343BB617B6886
:10416800BA695A603B685B6803F00303032B17D0F6
:104178007B68DB68BB61FB695B00032202FA03F31F
:10418800DB43BA691340BB613B689A68FB695B0013
:1041980002FA03F3BA691343BB617B68BA69DA6050
:1041A8003B685B6803F00303022B23D1FB69DA0841
:1041B8007B68083253F82230BB61FB6903F00703C0
:1041C8009B000F2202FA03F3DB43BA691340BB6179
:1041D8003B681A69FB6903F007039B0002FA03F3C3
:1041E800BA691343BB61FB69DA087B680832B969AD
:1041F80043F822107B681B68BB61FB695B000322E4
:1042080002FA03F3DB43BA691340BB613B685B689E
:1042180003F00302FB695B0002FA03F3BA69134374
:10422800BB617B68BA691A603B685B6803F440331A
:10423800002B00F0B4800023FB60604B5B6C5F4A8E
:1042480043F4804353645D4B5B6C03F48043FB6031
:10425800FB685B4AFB699B08023352F82330BB6159
:10426800FB6903F003039B000F2202FA03F3DB430D
:10427800BA691340BB617B68524A93422BD07B6872
:10428800514A934225D07B68504A93421FD07B689D
:104298004F4A934219D07B684E4A934213D07B68A9
:1042A8004D4A93420DD07B684C4A934207D07B68B5
:1042B8004B4A934201D107230EE008230CE0062362
:1042C8000AE0052308E0042306E0032304E00223B0
:1042D80002E0012300E00023FA6902F003029200E1
:1042E8009340BA691343BB613549FB699B080233A4
:1042F800BA6941F823203B4B9B68BB613B69DB43B0
:10430800BA691340BB613B685B6803F48013002BF8
:1043180003D0BA693B691343BB61324ABB699360F6
:10432800304BDB68BB613B69DB43BA691340BB6157
:104338003B685B6803F40013002B03D0BA693B6940
:104348001343BB61274ABB69D360264B5B68BB61DB
:104358003B69DB43BA691340BB613B685B6803F4A4
:104368000033002B03D0BA693B691343BB611D4A74
:10437800BB6953601B4B1B68BB613B69DB43BA6974
:104388001340BB613B685B6803F48033002B03D0A8
:10439800BA693B691343BB61124ABB691360FB6985
:1043A8000133FB61FB690F2B7FF690AE00BF00BFA6
:1043B8002437BD465DF8047B704700BF00380240D3
:1043C800003801400000024000040240000802409A
:1043D800000C024000100240001402400018024085
:1043E800001C0240003C014080B485B000AF7860FA
:1043F8000B467B807B681A697B881340002B02D0B0
:104408000123FB7301E00023FB73FB7B1846143781
:10441800BD465DF8047B704780B483B000AF786018
:104428000B467B8013467B707B78002B03D07A8801
:104438007B689A6103E07B881A047B689A6100BFF5
:104448000C37BD465DF8047B7047000080B582B02C
:1044580000AF0346FB80084B5A69FB881340002BCA
:1044680006D0054AFB885361FB881846FEF73AFBDD
:1044780000BF0837BD4680BD003C014080B586B00E
:1044880002AF78607B68002B01D1012301E17B68D2
:104498001B68BB607B6893F89534DBB2002B06D1B0
:1044A8007B68002283F89424786807F03FFF7B68D4
:1044B800032283F89524BB68B3F1A04F02D17B682F
:1044C80000229A717B681B68184604F06AFB7B68B7
:1044D80018687B681A7C8DF8002004330ECB04F032
:1044E80049FA0346002B05D07B68022283F89524FD
:1044F8000123CEE07B681B680021184604F062FBAC
:104508000346002B05D07B68022283F895240123FB
:10451800BFE00023FB734AE0FA7B79681346DB00AF
:1045280013449B000B44153301221A70FA7B7968F7
:104538001346DB0013449B000B441433FA7B1A70B8
:10454800FA7BFB7B98B279681346DB0013449B0027
:104558000B442E3302461A80FA7B79681346DB0037
:1045680013449B000B44183300221A70FA7B7968B5
:104578001346DB0013449B000B441C3300221A60D3
:10458800FA7B79681346DB0013449B000B44203305
:1045980000221A60FA7B79681346DB0013449B00FB
:1045A8000B44243300221A60FB7B0133FB737B68C6
:1045B8001B79FA7B9A42AFD30023FB7344E0FA7B62
:1045C80079681346DB0013449B000B4403F2552320
:1045D80000221A70FA7B79681346DB0013449B00AB
:1045E8000B4403F51573FA7B1A70FA7B7968134646
:1045F800DB0013449B000B4403F5167300221A706A
:10460800FA7B79681346DB0013449B000B4403F5DF
:10461800177300221A60FA7B79681346DB0013448B
:104628009B000B4403F5187300221A60FA7B796823
:104638001346DB0013449B000B4403F51973002257
:104648001A60FB7B0133FB737B681B79FA7B9A4208
:10465800B5D37B6818687B681A7C8DF80020043312
:104668000ECB04F0FBFA0346002B05D07B68022230
:1046780083F8952401230CE07B6800225A747B6838
:10468800012283F895247B681B68184605F045FBD2
:10469800002318461037BD4680BD80B584B000AFF2
:1046A80078607B681B68FB607B6893F89434012B07
:1046B80001D1022322E07B68012283F89424FB685D
:1046C800DB6803F04003002B09D07B685B7B012B80
:1046D80005D1FB689B6B43F48032FB689A637B6867
:1046E8001B68184604F04CFA7B681B68184605F0EE
:1046F800F3FA7B68002283F89424002318461037C5
:10470800BD4680BD90B58DB000AF78607B681B68F2
:104718003B623B6AFB617B681B68184605F0B1FB8E
:104728000346002B40F08C847B681B68184605F014
:1047380015FB0346002B00F08284FB6903F5006338
:104748009B681B0AC3F30D027B68C3F8D4247B68FB
:104758001B68184605F002FB034603F00203022B10
:1047680007D17B681B685A697B681B6802F00202E4
:104778005A617B681B68184605F0F0FA034603F097
:104788001003102B61D17B681B689A697B681B68D2
:1047980022F010029A613B6A1B6ABB61BB6903F095
:1047A8000F021346DB0013449B0003F514737A6869
:1047B800134404337B61BB695B0C03F00F03022BCA
:1047C80024D1BA6947F6F0731340002B35D07B69C2
:1047D800D968BB691B099BB2C3F30A039BB21A468B
:1047E800386A05F027F97B69DA68BB691B09C3F3E6
:1047F8000A031A447B69DA607B695A69BB691B0939
:10480800C3F30A031A447B695A6116E0BB695B0C5F
:1048180003F00F03062B10D17B6803F29C43082298
:104828001946386A05F006F97B695A69BB691B099C
:10483800C3F30A031A447B695A617B681B689A6947
:104848007B681B6842F010029A617B681B681846F7
:1048580005F084FA034603F40023B3F5002F40F073
:10486800A78000237B627B681B68184605F089FADD
:10487800B86299E0BB6A03F00103002B00F08E8058
:104888007B681B687A6AD2B21146184605F0ADFA01
:1048980038613B6903F00103002B0CD07B6A5A0195
:1048A800FB69134403F530631A4601239360796A60
:1048B800786800F0A3FE3B6903F00803002B0CD0D6
:1048C8007B6A5A01FB69134403F530631A460823CF
:1048D8009360796A786800F079FF3B6903F0100308
:1048E800002B08D07B6A5A01FB69134403F5306337
:1048F8001A46102393603B6903F00203002B30D063
:104908003B6A5B6903F08003802B09D1FB6903F5DF
:1049180000635B68FA6902F5006243F480635360E0
:104928007A6A1346DB0013449B0003F514737A6814
:10493800134404337B617B69DB78012B08D17B69E5
:104948000022DA707B6ADBB21946786807F0F4FD5A
:104958007B6A5A01FB69134403F530631A46022344
:1049680093603B6903F02003002B08D07B6A5A014F
:10497800FB69134403F530631A46202393603B69AF
:1049880003F40053002B09D07B6A5A01FB691344D6
:1049980003F530631A464FF4005393607B6A013382
:1049A8007B62BB6A5B08BB62BB6A002B7FF462AFA9
:1049B8007B681B68184605F0D1F9034603F4802389
:1049C800B3F5802F40F0DB807B681B68184605F044
:1049D800F2F9B86200237B62CDE0BB6A03F0010301
:1049E800002B00F0C2807B681B687A6AD2B211463D
:1049F800184605F018FA38613B6903F00103002BEB
:104A080057D07B6A03F00F03012202FA03F3FB601D
:104A1800FB6903F500635A6BFB68DB43F96901F531
:104A2800006113404B637B6A5A01FB69134403F529
:104A380010631A46012393607B689B79012B32D15E
:104A480079687A6A1346DB0013449B000B442033D1
:104A5800196878687A6A1346DB0013449B0003449C
:104A68001C331B68194478687A6A1346DB001344C0
:104A78009B000344203319607B6A002B13D17968AB
:104A88007A6A1346DB0013449B000B4424331B68EB
:104A9800002B08D17B6818687B6803F29C431A4690
:104AA800012105F01FFA7B6ADBB21946786807F026
:104AB800BEFC3B6903F00803002B08D07B6A5A014F
:104AC800FB69134403F510631A46082393603B6996
:104AD80003F01003002B08D07B6A5A01FB691344CA
:104AE80003F510631A46102393603B6903F04003F3
:104AF800002B08D07B6A5A01FB69134403F5106345
:104B08001A46402393603B6903F00203002B23D02D
:104B1800796A386A04F006FA7A6A1346DB001344A5
:104B28009B0010337A68134404337B617B69DB781C
:104B3800012B08D17B690022DA707B6ADBB2194647
:104B4800786807F00BFD7B6A5A01FB69134403F58B
:104B580010631A46022393603B6903F08003002B1D
:104B680003D0796A786800F0BDFC7B6A01337B6208
:104B7800BB6A5B08BB62BB6A002B7FF42EAF7B6805
:104B88001B68184605F0EAF8034603F00043B3F142
:104B9800004F22D1FB6903F500635B68FA6902F5EF
:104BA800006223F0010353607B6893F8CC34012B37
:104BB80008D17B68002283F8CC240021786800F0B3
:104BC800A3FE02E0786807F0A9FC7B681B685A69B5
:104BD8007B681B6802F000425A617B681B681846B4
:104BE80005F0BCF8034603F40063B3F5006F12D177
:104BF800FB6903F500639B6803F00103012B02D1F5
:104C0800786807F065FC7B681B685A697B681B68D5
:104C180002F400625A617B681B68184605F09EF82A
:104C2800034603F48053B3F5805F40F0B780FB6917
:104C380003F500635B68FA6902F5006223F001037B
:104C480053607B681B681021184604F06BF9002339
:104C5800FB6246E0FB6A5A01FB69134403F51063E3
:104C68001A464FF67F339360FB6A5A01FB69134477
:104C780003F510631B68FA6A5101FA690A4402F5E0
:104C8800106223F400131360FB6A5A01FB69134492
:104C980003F530631A464FF67F339360FB6A5A0177
:104CA800FB69134403F530631B68FA6A5101FA691A
:104CB8000A4402F5306223F400131360FB6A5A01B8
:104CC800FB69134403F530631B68FA6A5101FA69FA
:104CD8000A4402F5306243F000631360FB6A013353
:104CE800FB627B681B791A46FB6A9342B2D3FB6965
:104CF80003F50063DB69FA6902F5006243F001130A
:104D0800D3617B68DB7B002B16D0FB6903F500635E
:104D1800D3F88430FA6902F5006243F00B03C2F855
:104D28008430FB6903F500635B6CFA6902F5006285
:104D380043F00B03536415E0FB6903F500635B69FB
:104D4800FA6902F5006243F4005343F02B03536100
:104D5800FB6903F500631B69FA6902F5006243F019
:104D68000B031361FB6903F500631B68FA6902F51D
:104D7800006223F4FE6313607B6818687B68997986
:104D88007B6803F29C431A4605F0ACF87B681B6805
:104D98005A697B681B6802F480525A617B681B68F9
:104DA800184604F0DBFF034603F40053B3F5005F35
:104DB80023D17B681B68184605F071F87B681B686F
:104DC800184604F028F903461A467B68DA717B68AE
:104DD8001C6801F009FA01467B68DB791A4620460F
:104DE80003F02CFE786807F04AFB7B681B685A6959
:104DF8007B681B6802F400525A617B681B6818467E
:104E080004F0ACFF034603F00803082B0AD17868C6
:104E180007F027FB7B681B685A697B681B6802F0F0
:104E280008025A617B681B68184604F097FF03461E
:104E380003F08003802B23D13B6A9B6923F0800217
:104E48003B6A9A6101237B6214E079687A6A1346A7
:104E5800DB0013449B000B4403F257231B78012B00
:104E680005D17B6ADBB21946786800F00AFB7B6AD9
:104E780001337B627B681B791A467B6A9342E4D3D1
:104E88007B681B68184604F069FF034603F4801327
:104E9800B3F5801F3CD101237B622BE07B6A5A016A
:104EA800FB69134403F510631B68BB6179687A6A70
:104EB8001346DB0013449B000B4418331B78012B6B
:104EC80015D1BB69002B12DA79687A6A1346DB00C0
:104ED80013449B000B44173301221A707B6ADBB220
:104EE80063F07F03DBB21946786800F0CAFA7B6A80
:104EF80001337B627B681B791A467B6A9342CDD368
:104F08007B681B685A697B681B6802F480125A61C7
:104F18007B681B68184604F021FF034603F400135E
:104F2800B3F5001F56D101237B6245E07B6A5A0125
:104F3800FB69134403F530631B68BB6179687A6ABF
:104F48001346DB0013449B000B4403F516731B78D0
:104F5800012B2ED1BB69002B2BDABB691A0C7B689D
:104F6800D3F8D434534003F00103002B21D17968DE
:104F78007A6A1346DB0013449B000B4403F2572361
:104F880001221A703B6A9B6943F080023B6A9A616E
:104F98003B6A5B6903F08003002B0AD1FB6903F5C8
:104FA80000635B68FA6902F5006243F400735360BA
:104FB80008E07B6A01337B627B681B791A467B6A4F
:104FC8009342B3D37B681B685A697B681B6802F4F9
:104FD80000125A617B681B68184604F0BFFE03463E
:104FE80003F08043B3F1804F0AD1786807F0C8FA1C
:104FF8007B681B685A697B681B6802F080425A61AB
:105008007B681B68184604F0A9FE034603F00403F6
:10501800042B15D17B681B685B68BB61BB6903F017
:105028000403002B02D0786807F0B8FA7B681B6885
:1050380059687B681B68BA690A435A6000E000BF78
:105048003437BD4690BD80B582B000AF78600B465E
:10505800FB707B6893F89434012B01D1022312E092
:105068007B68012283F894247B68FA785A747B68F9
:105078001B68FA781146184604F008FE7B6800227F
:1050880083F89424002318460837BD4680BD80B5B0
:1050980084B000AF7860084611461A460346FB7094
:1050A8000B463B801346BB700023FB7297F9033015
:1050B800002B0FDAFB7803F00F021346DB001344D2
:1050C8009B0010337A6813440433FB60FB680122A9
:1050D8005A700FE0FB7803F00F021346DB0013440D
:1050E8009B0003F514737A6813440433FB60FB6870
:1050F80000225A70FB7803F00F03DAB2FB681A70CB
:105108003B88C3F30A02FB689A60FB68BA781A7195
:10511800FB685B78002B04D0FB681B781A46FB6899
:105128005A83BB78022B02D1FB6800225A717B6834
:1051380093F89434012B01D102230EE07B680122FD
:1051480083F894247B681B68F968184603F088FF85
:105158007B68002283F89424FB7A18461037BD46F2
:1051680080BD80B584B000AF78600B46FB7097F9BE
:105178000330002B0FDAFB7803F00F021346DB0035
:1051880013449B0010337A6813440433FB60FB68B4
:1051980001225A700FE0FB7803F00F021346DB0080
:1051A80013449B0003F514737A6813440433FB60BB
:1051B800FB6800225A70FB7803F00F03DAB2FB6831
:1051C8001A707B6893F89434012B01D102230EE006
:1051D8007B68012283F894247B681B68F968184669
:1051E80003F0C6FF7B68002283F894240023184646
:1051F8001037BD4680BD80B586B000AFF8607A60D4
:105208003B600B46FB72FB7A03F00F021346DB0090
:1052180013449B0003F51473FA68134404337B6149
:105228007B697A68DA607B693A681A617B6900226F
:105238005A617B6900225A70FB7A03F00F03DAB2D5
:105248007B691A70FB689B79012B02D17A687B69AC
:10525800DA61FB681868FB689B791A46796904F07B
:1052680063F8002318461837BD4680BD80B483B064
:1052780000AF78600B46FB70FB7803F00F0279688B
:105288001346DB0013449B000B4403F51A731B6899
:1052980018460C37BD465DF8047B704780B586B06C
:1052A80000AFF8607A603B600B46FB72FB7A03F054
:1052B8000F021346DB0013449B001033FA681344B3
:1052C80004337B617B697A68DA607B693A681A61C2
:1052D8007B6900225A617B6901225A70FB7A03F0CC
:1052E8000F03DAB27B691A70FB689B79012B02D134
:1052F8007A687B69DA61FB681868FB689B791A46EB
:10530800796904F011F8002318461837BD4680BDA6
:1053180080B584B000AF78600B46FB70FB7803F073
:105328000F037A681279934201D901234FE097F964
:105338000330002B0FDAFB7803F00F021346DB0073
:1053480013449B0010337A6813440433FB60FB68F2
:1053580001225A700DE0FA781346DB0013449B00D3
:1053680003F514737A6813440433FB60FB68002266
:105378005A70FB6801229A70FB7803F00F03DAB2C7
:10538800FB681A707B6893F89434012B01D10223CF
:105398001DE07B68012283F894247B681B68F96808
:1053A800184604F09FFBFB7803F00F03002B09D18C
:1053B8007B6818687B6899797B6803F29C431A4676
:1053C80004F090FD7B68002283F89424002318469B
:1053D8001037BD4680BD80B584B000AF78600B46FD
:1053E800FB70FB7803F00F037A681279934201D9B6
:1053F800012342E097F90330002B0FDAFB7803F022
:105408000F021346DB0013449B0010337A681344E1
:105418000433FB60FB6801225A700FE0FB7803F04D
:105428000F021346DB0013449B0003F514737A68DC
:1054380013440433FB60FB6800225A70FB680022A7
:105448009A70FB7803F00F03DAB2FB681A707B6876
:1054580093F89434012B01D102230EE07B680122DA
:1054680083F894247B681B68F968184604F0A8FB45
:105478007B68002283F89424002318461037BD4621
:1054880080BD80B584B000AF78600B46FB7097F99B
:105498000330002B0CDAFB7803F00F021346DB0015
:1054A80013449B0010337A6813440433FB600CE008
:1054B800FB7803F00F021346DB0013449B0003F54F
:1054C80014737A6813440433FB607B681B68F968BB
:1054D800184604F0C7F90346FB72FB7A18461037E2
:1054E800BD4680BD80B58AB002AF786039607B6800
:1054F8001B687B617B693B613A681346DB00134498
:105508009B0010337A6813440433FB60FB685A69C4
:10551800FB681B699A4201D901236BE0FB681A6991
:10552800FB685B69D31AFB61FB689B68FA699A425E
:1055380002D9FB689B68FB61FB6903339B08BB616D
:105548002AE0FB681A69FB685B69D31AFB61FB6890
:105558009B68FA699A4202D9FB689B68FB61FB6900
:1055680003339B08BB61FB68D9683B68DAB2FB6907
:1055780098B27B689B7900930346786904F01CFA1B
:10558800FB68DA68FB691A44FB68DA60FB685A69E9
:10559800FB691A44FB685A613B685A013B6913442A
:1055A80003F510639B699BB2BA699A4209D8FB68F4
:1055B8005A69FB681B699A4203D2FB681B69002B76
:1055C800BFD1FB681A69FB685B699A4211D83B68CE
:1055D80003F00F03012202FA03F3BB603B6903F5F2
:1055E80000635A6BBB68DB43396901F500611340FE
:1055F8004B63002318462037BD4680BD80B588B070
:1056080000AF786039607B681B68FB61FB69BB6130
:10561800FB693C3304331B687B613B685A01BB69F7
:10562800134403F530639B683B617B689B79012BCE
:105638007BD13B6903F00803002B15D07B69614AD5
:10564800934240F2B9803B6903F40043002B00F019
:10565800B3803B685A01BB69134403F530631A46AB
:105668004FF400439360A7E03B6903F02003002B4D
:1056780009D03B685A01BB69134403F530631A46E5
:105688002023936098E03B6903F02803002B40F047
:1056980093807B694B4A93420FD93B6903F40043DB
:1056A800002B0AD03B685A01BB69134403F53063E9
:1056B8001A464FF4004393607EE03A681346DB00D5
:1056C80013449B0003F514737A6813440433FB6096
:1056D800FB681A6A3B685901BB690B4403F53063E0
:1056E8001B69C3F31203D21AFB685A613B68002B8B
:1056F80014D1FB681B69002B09D17B6818687B688B
:1057080003F29C431A46012104F0ECFB06E0FB6817
:10571800DA68FB685B691A44FB68DA603B68DBB2ED
:105728001946786806F068FE46E07B69264A934287
:1057380024D13B6903F40043002B0AD03B685A018B
:10574800BB69134403F530631A464FF40043936072
:1057580032E03B6903F02003002B08D03B685A0174
:10576800BB69134403F530631A46202393603B68F2
:10577800DBB21946786806F03FFE1DE03B68002B57
:1057880014D179683A681346DB0013449B000B4434
:1057980003F519731B68002B08D17B6818687B68B0
:1057A80003F29C431A46002104F09CFB3B68DBB2E1
:1057B8001946786806F020FE002318462037BD46B3
:1057C80080BD00BF0A30544F0A31544F80B586B0AF
:1057D80000AF786039607B681B687B617B693B61DF
:1057E8007B693C3304331B68FB603B685A013B69A7
:1057F800134403F530639B68BB60FB68154A93420A
:105808000ED9BB6803F40043002B09D03B685A014A
:105818003B69134403F530631A464FF40043936021
:10582800786806F0D7FDFB680A4A93420CD97B6872
:105838009B79012B08D17B6818687B6803F29C432D
:105848001A46012104F04EFB002318461837BD46BE
:1058580080BD00BF0A30544F80B485B000AF786077
:105868000B46FB7013463B807B681B685B6ABB601A
:10587800FB78002B07D13B8819047B681B68BA6842
:105888000A439A6228E07B681B689B6A1B0CBA680B
:105898001344BB600023FB730DE07B681A68FB7B35
:1058A80040339B0013445B681B0CBA681344BB600D
:1058B800FB7B0133FB73FA7BFB78013B9A42ECD309
:1058C8003B8818047B681968FB78013BBA68024377
:1058D80040339B000B445A60002318461437BD46DA
:1058E8005DF8047B704780B483B000AF78600B46E6
:1058F8007B807B681B687A885A62002318460C37BD
:10590800BD465DF8047B704780B483B000AF786013
:105918000B46FB7000BF0C37BD465DF8047B704733
:1059280080B586B000AF78607B68002B01D1012379
:1059380067E27B681B6803F00103002B75D0884B76
:105948009B6803F00C03042B0CD0854B9B6803F079
:105958000C03082B12D1824B5B6803F48003B3F568
:10596800800F0BD17E4B1B6803F40033002B5BD0F8
:105978007B685B68002B57D1012342E27B685B6838
:10598800B3F5803F06D1764B1B68754A43F48033E4
:1059980013601DE07B685B68B3F5A02F0CD1704BDA
:1059A8001B686F4A43F4802313606D4B1B686C4A75
:1059B80043F4803313600BE0694B1B68684A23F497
:1059C80080331360664B1B68654A23F48023136099
:1059D8007B685B68002B13D0FDF726FE386108E072
:1059E800FDF722FE02463B69D31A642B01D9032333
:1059F80007E25B4B1B6803F40033002BF0D014E084
:105A0800FDF712FE386108E0FDF70EFE02463B691D
:105A1800D31A642B01D90323F3E1514B1B6803F418
:105A28000033002BF0D100E000BF7B681B6803F057
:105A38000203002B63D04A4B9B6803F00C03002B36
:105A48000BD0474B9B6803F00C03082B1CD1444B2D
:105A58005B6803F48003002B16D1414B1B6803F0ED
:105A68000203002B05D07B68DB68012B01D00123E2
:105A7800C7E13B4B1B6823F0F8027B681B69DB001E
:105A8800374913430B603AE07B68DB68002B20D072
:105A9800344B01221A60FDF7C7FD386108E0FDF7B5
:105AA800C3FD02463B69D31A022B01D90323A8E19F
:105AB8002B4B1B6803F00203002BF0D0284B1B680C
:105AC80023F0F8027B681B69DB00254913430B6050
