:020000040800F2
:1000000000000220153A00080939000811390008DB
:1000100019390008213900082939000800000000BA
:10002000000000000000000000000000313900085E
:100030003F390008000000004D3900085B39000816
:10004000653A0008653A0008653A0008653A000814
:10005000653A0008653A00086739000879390008F0
:100060008B390008653A0008653A0008653A0008CF
:10007000653A0008653A0008653A0008653A0008E4
:100080009D390008653A0008653A0008653A00089D
:10009000653A0008653A0008653A0008653A0008C4
:1000A000653A0008653A0008653A0008653A0008B4
:1000B000653A0008653A0008653A0008653A0008A4
:1000C000653A0008653A0008653A0008653A000894
:1000D000653A0008653A0008B1390008653A000839
:1000E000653A0008653A0008653A0008653A000874
:1000F000653A0008653A0008653A0008653A000864
:10010000653A0008653A0008653A0008653A000853
:10011000653A0008653A0008653A0008C5390008E4
:10012000653A0008653A0008653A0008653A000833
:10013000653A0008653A0008653A0008653A000823
:10014000653A0008653A0008653A0008DD3900089C
:10015000653A0008653A0008653A0008653A000803
:10016000653A0008653A0008653A0008653A0008F3
:10017000653A0008653A0008653A0008000000008A
:08018000653A0008653A000829
:1001880010B5054C237833B9044B13B10448AFF3C9
:1001980000800123237010BD5802002000000000D9
:1001A800D4F4000808B5034B1BB103490348AFF367
:1001B800008008BD000000005C020020D4F40008A4
:1001C80053B94AB9002908BF00281CBF4FF0FF31B6
:1001D8004FF0FF3000F06AB9ADF1080C6DE904CEBC
:1001E80000F006F8DDF804E0DDE9022304B070470A
:1001F8002DE9F047089D0C46002B4ED194468C45BE
:100208008646B2FA82F262D94AB1C2F1200391401D
:1002180020FA03F30CFA02FC194300FA02FE4FEA33
:100228001C471FFA8CF6B1FBF7F44FEA1E4307FB95
:10023800141143EA014304FB06F199420AD91CEB65
:10024800030304F1FF3080F01281994240F20F81DC
:10025800023C6344591A1FFA8EF3B1FBF7F007FB0F
:10026800101143EA014300FB06F69E420AD91CEB33
:10027800030300F1FF3180F0FC809E4240F2F980D8
:10028800634402389B1B40EA044000211DB1D3405F
:100298000022C5E90032BDE8F0878B4205D90DB1CF
:1002A800C5E9000100210846F5E7B3FA83F1002902
:1002B80046D1A34202D39042C0F0F080861A64EB84
:1002C80003030120002DE6D0C5E90063E3E7002A17
:1002D80040F09080A1EB0C044FEA1C481FFA8CF701
:1002E8000121B4FBF8F64FEA1E4308FB164443EA23
:1002F800044307FB06F0984208D91CEB030306F1F8
:10030800FF3402D2984200F2CD8026461C1A1FFA0A
:100318008EF3B4FBF8F008FB104443EA044300FBF7
:1003280007F79F4208D91CEB030300F1FF3402D200
:100338009F4200F2B0802046DB1B40EA0640A5E75A
:10034800C1F120068B4022FA06F71F4320FA06FC6B
:1003580004FA01F343EA0C03F44000FA01F8380CFC
:100368004FEA1349B4FBF0FE1FFA87FC00FB1E445A
:1003780049EA04440EFB0CF9A14502FA01F20AD934
:100388003C190EF1FF3A80F08480A14540F281804B
:10039800AEF1020E3C44A4EB09041FFA83F9B4FB46
:1003A800F0F300FB134449EA044403FB0CFCA445A6
:1003B80007D93C1903F1FF3067D2A44565D9023B40
:1003C8003C4443EA0E40A0FB0293A4EB0C049C427D
:1003D800CE469C4651D34ED055B1B8EB0E0364EBD4
:1003E8000C0404FA06F6CB401E43CC40C5E9006471
:1003F800002150E7C2F1200320FA03F10CFA02FCB5
:1004080024FA03F394400C434FEA1C4800FA02FE16
:100418001FFA8CF7B3FBF8F008FB1031230C43EA02
:10042800014300FB07F1994208D91CEB030300F1D3
:10043800FF362CD299422AD9023863445B1AA4B2F7
:10044800B3FBF8F108FB113344EA034401FB07F35B
:10045800A34208D91CEB040401F1FF3613D2A342CE
:1004680011D902396444E41A41EA004139E70446E3
:10047800F0E6084606E7C845AED2B9EB020E63EBD4
:10048800070C0138A8E73146EDE7034699E73046FF
:10049800D4E7D6467FE7634402384DE7064623464D
:1004A80008460FE7023E634430E700BF704700BFCD
:1004B80080B500AF0021184806F03AFD0021174822
:1004C80006F036FD0421164806F032FD124B1B6873
:1004D80000225A62114B1B6800225A62104B1B689B
:1004E80000225A6208210F4806F022FD00210E481A
:1004F80006F01EFD00210D4806F01AFD094B1B6889
:1005080000225A62084B1B6800225A62074B1B687C
:1005180000225A6200BF80BDA8040020F004002019
:10052800180400208005002060040020D00300206B
:1005380080B483B000AF00237B6072E03E4A7B68E2
:100548004C2101FB03F31344143300221A603A4A86
:100558007B684C2101FB03F31344183300221A6013
:10056800354A7B684C2101FB03F3134424334FF4D1
:100578007A721A60304A7B684C2101FB03F31344FA
:10058800283300221A602C4A7B684C2101FB03F3B4
:1005980013442C334FF000021A60274A7B684C2121
:1005A80001FB03F31344313300221A70224A7B689B
:1005B8004C2101FB03F31344343300221A601E4A12
:1005C8007B684C2101FB03F31344203300221A609B
:1005D800194A7B684C2101FB03F313443033002292
:1005E8001A707B68D8B2144A7B684C2101FB03F36C
:1005F8001344403302461A700F4A7B684C2101FBB2
:1006080003F31344383300221A600B4A7B684C21E9
:1006180001FB03F31344323300221A707B68013361
:100628007B607B68022B89DD00BF00BF0C37BD46AD
:100638005DF8047B704700BF7402002080B500AFEE
:10064800214B224A1A60204B214A5A601E4B002235
:100658009A601D4B0422DA601B4B1E4A1A611A4B22
:100668004DF2D8625A64184B1B4ADA64164B1B4A7F
:100678001A65154B00225A65134B00229A65124BD6
:10068800174ADA65104B46F66052C3F890200E4BB5
:10069800144AC3F898200C4B134AC3F89C200A4B01
:1006A8000822C3F8A020084B0022C3F8A420064B58
:1006B8000E4AC3F8A820044B43F2C822C3F8DC2032
:1006C800FFF736FF00BF80BD74020020D003002072
:1006D800180400203915000860040020F0040020E8
:1006E8007515000880050020A8040020AD15000835
:1006F80080B584B000AFF860B9607A60FB6893F8A1
:100708003130DBB2072B75D0FB6893F83C30DBB295
:10071800012B6FD0FB685B6CBA689A4202DBFB68FE
:100728005B6CBB60BB68002B01D16423BB60FB68BA
:10073800BA689A617A68FB689A627B68304AA2FB59
:1007480003239B09013B2F4A9B0013441A68FB684B
:10075800DA62FB689A69FB685B699A4204DDFB68A8
:10076800002283F8302009E0FB689A69FB685B691E
:100778009A4241DAFB68012283F83020FB681B6942
:10078800FA6892F830201046984703461A46FB68E4
:1007980093F830309A4206D0FB681B69FA6892F8E1
:1007A800302010469847FB689A69FB685B699A4253
:1007B80005DDFB689A69FB685B69D31A04E0FB688E
:1007C8005A69FB689B69D31AFA68D361FB680122EE
:1007D80083F83120FB68012283F83C20FB68002263
:1007E80083F83D20FB6800221A62FB684FF47A7296
:1007F8005A6202E000BF00E000BF1037BD4680BD6E
:10080800D34D621034F5000880B483B000AF78602F
:100818007B681B681B6800225A627B685B681B68E0
:1008280000225A627B68DA697B685B681B68DA6257
:100838007B68DA697B685B68DA607B68DB68002B59
:1008480006D17B68DA697B685B681B685A631EE0BF
:100858007B68DB68042B07D17B68D9697B685B6898
:100868001A680B46936312E07B68DB68082B07D194
:100878007B68D9697B685B681A680B46D36306E0B6
:100888007B68D9697B685B681A680B4613647B6868
:100898005B681B6801225A617B681B681B6840F211
:1008A800E732DA627B681B6840F2E732DA607B681D
:1008B8009B68002B06D17B681B681B6840F2F3120B
:1008C8005A631BE07B689B68042B06D17B681B6816
:1008D8001A6840F2F313936310E07B689B68082B57
:1008E80006D17B681B681A6840F2F313D36305E0EE
:1008F8007B681B681A6840F2F31313647B681B68F3
:100908001B6801225A6100BF0C37BD465DF8047BA5
:10091800704780B483B000AF78607B6893F831305B
:10092800DBB2002B0DD07B6893F83130DBB2042B9F
:1009380007D07B68042283F831207B68012283F882
:10094800322000BF0C37BD465DF8047B704780B489
:1009580083B000AF78607B6893F83C30DBB2002B43
:1009680036D07B689B68002B05D17B681B681B68A9
:1009780000225A6318E07B689B68042B05D17B68CA
:100988001B681A68002393630EE07B689B68082B3A
:1009980005D17B681B681A680023D36304E07B6871
:1009A8001B681A68002313647B681B681B685A69F4
:1009B8007B681B681B6842F001025A617B68002251
:1009C8005A637B68002283F831207B6800225A62D0
:1009D800012318460C37BD465DF8047B70470000BC
:1009E80080B400AF204B5B691F4A23F40073536146
:1009F8001E4B9B68002B05D11C4B1B681B680022F3
:100A08005A6318E0194B9B68042B05D1174B1B68D8
:100A18001A68002393630EE0144B9B68082B05D1DA
:100A2800124B1B681A680023D36304E00F4B1B6842
:100A38001A68002313640D4B1B681B685A690B4B1B
:100A48001B681B6842F001025A61084B00225A6376
:100A5800064B002283F83120044B00225A6200BF63
:100A6800BD465DF8047B7047000002407402002018
:100A780080B400AF214B5B69204A23F080035361A7
:100A88001F4B5B6D002B05D11D4BDB6C1B680022D7
:100A98005A6318E01A4B5B6D042B05D1184BDB6CBD
:100AA8001A68002393630EE0154B5B6D082B05D184
:100AB800134BDB6C1A680023D36304E0104BDB6C28
:100AC8001A68002313640E4BDB6C1B685A690C4BC5
:100AD800DB6C1B6842F001025A61094B0022C3F823
:100AE8008020074B002283F87D20054B00221A67DF
:100AF80000BFBD465DF8047B704700BF0008024098
:100B08007402002080B400AF264B5B69254A23F4A9
:100B180000735361244BD3F8A030002B06D1224B2D
:100B2800D3F898301B6800225A631DE01E4BD3F897
:100B3800A030042B06D11C4BD3F898301A68002338
:100B4800936311E0184BD3F8A030082B06D1164B4D
:100B5800D3F898301A680023D36305E0124BD3F812
:100B680098301A68002313640F4BD3F898301B6829
:100B78005A690D4BD3F898301B6842F001025A614C
:100B8800094B0022C3F8CC20074B002283F8C92068
:100B9800054B0022C3F8BC2000BFBD465DF8047BAE
:100BA800704700BF000802407402002080B400AF04
:100BB8000D4B93F83C30DBB2002B0BD10A4B93F86A
:100BC8008830DBB2002B05D1074B93F8D430DBB269
:100BD800002B01D0012300E00023DBB21846BD46FC
:100BE8005DF8047B704700BF7402002080B582B0B6
:100BF80000AF78607B681B78DBB2012B05D1A34B73
:100C080001221A707B6802221A70A04B1B78013BE4
:100C1800032B00F2A48101A252F823F0350C00083E
:100C2800D90C0008E10D0008B10E0008984B1B789C
:100C3800002B25D1FFF7BAFF0346002B20D1954B97
:100C480043F2C822C3F8AC20022000F001FE03469C
:100C5800002B05D141F2883200218F48FFF748FD6B
:100C68008E4B1B8801339AB28C4B1A808B4B1B8896
:100C7800012B05D9864B01221A70884B00221A8055
:100C8800022000F0E5FD0346012B02D18248FFF760
:100C98005EFEFFF78BFF0346002B15D1804B1B88A8
:100CA80001339AB27E4B1A807D4B1B88B3F57A7F4D
:100CB800C0F057817A4B00221A80744B02221A70B6
:100CC800734B00221A704CE1754B00221A8048E1E0
:100CD8006F4B1B78002B45D1FFF768FF0346002BAD
:100CE80040D16C4B4DF2D8625A616A4B46F660525D
:100CF8001A66684B43F2C822C3F8AC20002000F003
:100D0800A7FD0346002B05D140F2DC5200216148C3
:100D1800FFF7EEFC012000F09BFD0346002B05D1F8
:100D280040F2DC5200215F48FFF7E2FC022000F0AD
:100D38008FFD0346002B05D140F2DC5200215648B6
:100D4800FFF7D6FC554B1B8801339AB2534B1A80D8
:100D5800524B1B88012B05D94D4B01221A704F4B62
:100D680000221A80002000F073FD0346012B02D1F7
:100D78004848FFF7ECFD012000F06AFD0346012B0F
:100D880002D14848FFF7E3FD022000F061FD034669
:100D9800012B02D14048FFF7DAFDFFF707FF0346B2
:100DA800002B15D13E4B1B8801339AB23C4B1A805D
:100DB8003B4B1B88B3F57A7FC0F0D580384B0022B7
:100DC8001A80324B03221A70314B00221A70CAE083
:100DD800334B00221A80C6E02D4B1B78002B21D103
:100DE8002C4B00225A612B4B00221A66294B0022F9
:100DF800C3F8AC204FF47A6240F6B8312548FFF7C3
:100E080077FC4FF47A6240F6B8312648FFF770FC59
:100E18004FF47A6240F6B8311F48FFF769FC1C4B63
:100E280001221A70FFF7C2FE0346002B40F09D8096
:100E38001B4B1B8801339AB2194B1A80184B1B881D
:100E4800B3F57A7FC0F09180154B00221A800F4BC2
:100E580004221A700E4B00221A700E4B5B6903F5C0
:100E68007A731A460B4B5A610A4B1B6E03F57A7359
:100E78001A46084B1A66074BD3F8AC3003F57A7359
:100E88001A46044BC3F8AC206FE000BF580300209B
:100E980059030020740200200C0300205A0300208C
:100EA8005C030020C0020020344B1B78002B20D1AB
:100EB8004FF47A7200213248FFF71AFC4FF47A7225
:100EC80000213048FFF714FC4FF47A7200212E48B5
:100ED800FFF70EFC2A4B012283F84820284B0122F9
:100EE80083F89420264B012283F8E020234B01222B
:100EF8001A70002000F0ACFC0346012B02D12048F8
:100F0800FFF725FD012000F0A3FC0346012B02D1C9
:100F18001C48FFF71CFD022000F09AFC0346012B39
:100F280002D11948FFF713FDFFF740FE0346002BD7
:100F38001DD1164B1B8801339AB2144B1A80134BE0
:100F48001B88B3F57A7F12D3104B00221A800B4B03
:100F580000221A700E4B00221A70012309E000BF0C
:100F680006E000BF04E000BF02E000BF00E000BFF1
:100F7800002318460837BD4680BD00BF590300202E
:100F880074020020C00200200C0300205C03002033
:100F98005803002080B58AB000AFF860B9607A6065
:100FA80087ED000A3E4B5B69FA689A4208DD3C4BC4
:100FB8005B69FA68D31A07EE903AF8EEE77A07E029
:100FC800374B5A69FB68D31A07EE903AF8EEE77A7E
:100FD800C7ED097A324B1B6EBA689A4208DD304B6E
:100FE8001B6EBA68D31A07EE903AF8EEE77A07E074
:100FF8002B4B1A6EBB68D31A07EE903AF8EEE77AD5
:10100800C7ED087A97ED097AD7ED087AB4EEE77A52
:10101800F1EE10FA01DD7B6A00E03B6AFB61D7ED77
:10102800007AFCEEE77A17EE902A79681D48FFF7F8
:101038005FFBD7ED077AF5EE407AF1EE10FA01D1B1
:10104800002328E097ED007AD7ED097A67EE276A42
:1010580097ED077AC6EE877AFCEEE77A17EE903AB4
:10106800BB6197ED007AD7ED087A67EE276A97EDAE
:10107800077AC6EE877AFCEEE77A17EE903A7B613C
:10108800BA69F9680648FFF733FB7A69B968064810
:10109800FFF72EFB012318462837BD4680BD00BF49
:1010A800740200200C030020C002002080B584B028
:1010B80000AF03463A60FB710B46BB71BB79032B4B
:1010C8004FD0032B57DC012B02D0022B17D052E054
:1010D800FB794C2202FB03F3294A9818FB79284A2A
:1010E8004C2101FB03F3134444331B683A6802FBA9
:1010F80003F341F288321946FFF7FAFA3CE03B68FD
:10110800002B19D1FB791E4A4C2101FB03F3134430
:1011180014331B68642B38BF6423643BFB60FB7982
:101128004C2202FB03F3164A134441F28832F96851
:101138001846FFF7DDFA1FE0FB794C2202FB03F3A8
:101148000F4A9818FB790E4A4C2101FB03F313440C
:1011580014331B68643341F288321946FFF7C8FA22
:101168000AE0FB794C2202FB03F3054A13441846B4
:10117800FFF7CFFB00E000BF00BF1037BD4680BDC2
:101188007402002080B584B000AF78600023FB6053
:101198000023BB607B6893F83130DBB2013B042B42
:1011A80000F2AE8001A252F823F000BFC911000876
:1011B800F91100087D1200089B120008E7120008C8
:1011C8007868FFF721FB7B6893F84830DBB2012B86
:1011D80004D17B68052283F8312003E07B68022272
:1011E80083F831207B685B6B5A1C7B685A638EE0FE
:1011F8007B685B6B642B16D97B681A6A7B689A6379
:101208007B685B6B5A1E7B685A637B68032283F892
:1012180031207B689B6AB3F57A7F19D97B689A6A13
:101228007B685A6214E07B6893ED0B7A7B685B6B92
:10123800904A9B001344D3ED007A67EE277AFCEEC0
:10124800E77A17EE903A03F57A731A467B685A6282
:101258007B685B6B5A1C7B685A637B68DB691A4640
:101268007B681B6A5B009A424CD87B68042283F82F
:10127800312047E07B68DB691A467B681B6AD21A13
:101288007B689B6B9A423FD87B68042283F83120A5
:101298003AE07B685B6B5A1E7B685A637B685B6BC2
:1012A800002B02DC7B6800225A637B685B6B642B33
:1012B8002CD87B6893ED0B7A7B685B6B6D4A9B003F
:1012C8001344D3ED007A67EE277AFCEEE77A17EE3F
:1012D800903A03F57A731A467B685A6216E07B687F
:1012E8005B691A4640F2DC539A4204D97B684FF492
:1012F8007A725A620BE07B6840F2F3125A6206E097
:1013080000BF04E000BF02E000BF00E000BF7B6850
:1013180093F83C30DBB2012B40F0E9807B685B6AD4
:10132800B3F5F97F36D97B685B6A1A46524BB3FB33
:10133800F2F3BB607B681B681B68BA68DA627B687B
:101348001B68BA68DA607B689B68002B06D17B68EB
:101358001B681B68BA6852085A631BE07B689B6865
:10136800042B06D17B681B681A68BB685B0893630B
:1013780010E07B689B68082B06D17B681B681A689D
:10138800BB685B08D36305E07B681B681A68BB68A9
:101398005B0813647B685B681B685B6AFB607B683F
:1013A80093F83030002B12D1FA687B681B6AD31A85
:1013B8007A68526913441A467B685A617B685B698C
:1013C8007A6892F832201A447B685A6111E0FA6808
:1013D8007B681B6AD31A7A685269D31A1A467B68E3
:1013E8005A617B685B697A6892F832209A1A7B683E
:1013F8005A617B68002283F832207B6859697B68D0
:1014080093F840301A4689B21C4B23F81210FA6838
:101418007B681A627B6893F83D30012B4BD17B685F
:10142800002283F848207B68002283F83D207B68EF
:10143800002283F83C207B689B68002B05D17B68E1
:101448001B681B6800225A631FE07B689B68042B9B
:1014580005D17B681B681A680023936315E07B68D5
:101468009B68082B0CD17B681B681A680023D36320
:101478000BE000BFFCF5000840420F001C250020CF
:101488007B681B681A68002313647B681B681B68E9
:1014980040F2E732DA627B681B6840F2E732DA60D2
:1014A8007B681B681B685A697B681B681B6842F06D
:1014B80001025A611BE07B685A697B689B699A4202
:1014C80003D07B685B6B002B11D17B684FF47A7279
:1014D8005A627B68002283F831207B68012283F8F6
:1014E8003D207B6800225A637B6800229A6300BF14
:1014F8001037BD4680BD00BF80B582B000AF002365
:101508007B600BE07B684C2202FB03F3074A134421
:101518001846FFF737FE7B6801337B607B68022B38
:10152800F0DD00BF00BF0837BD4680BD7402002053
:1015380080B582B000AF0346FB71FB791A464FF4C1
:101548000071094803F0BEFC4FF40071064803F02F
:10155800A1FC0346002B01D0012300E0002318461C
:101568000837BD4680BD00BF0000024080B582B08C
:1015780000AF0346FB71FB791A468021084803F047
:10158800A1FC8021064803F085FC0346002B01D00E
:10159800012300E0002318460837BD4680BD00BF80
:1015A8000008024080B582B000AF0346FB71FB79AA
:1015B8001A464FF40071094803F084FC4FF4007197
:1015C800064803F067FC0346002B01D0012300E026
:1015D800002318460837BD4680BD00BF00080240FA
:1015E80080B582B000AF214B1B6801331F4A1360DE
:1015F800FFF782FF1D4B1B686FF00042934230D308
:101608001A4B00221A6000237B6027E0184A7B6887
:101618001B01134400221A60154A7B681B011344FE
:101628000C331B68002B0FDA114A7B681B0113442B
:101638000C331B6803F1004301330D497A6812012A
:101648000A440C32136006E0094A7B681B01134404
:101658000C3300221A607B6801337B607B68052BA2
:10166800D4DD00BF0837BD4680BD00BFC0030020E1
:101678006003002080B483B000AF03463960FB717B
:10168800FB79164A1B011344043301221A70FB79B3
:10169800124A1B01134408333A681A60FB79104A4E
:1016A80012680E491B010B441A60FB790B4A1B0197
:1016B80013441968FB79094A1B01134408331A6853
:1016C800FB790A4405491B010B440C331A6000BF1F
:1016D8000C37BD465DF8047B704700BF60030020EF
:1016E800C003002080B582B000AF0346FB71FB79D0
:1016F800164A126816491B010B441A60FB79144AF2
:101708001B01134404331B78012B19D1FB79104AB0
:101718001B0113441A68FB790D491B010B440C3358
:101728001B689A420CD3FB79094A1B0113440833FE
:101738001A68FB7911461846FFF79CFF012300E061
:10174800002318460837BD4680BD00BFC0030020EF
:101758006003002080B483B000AF134B1B693B606B
:101768000023FB713B6803F00103002B03D0FB79D6
:1017780043F00103FB713B6803F00203002B03D025
:10178800FB7943F00203FB713B6803F00403002B71
:1017980003D0FB7943F00403FB71FB7918460C373F
:1017A800BD465DF8047B70470008024080B582B0F2
:1017B80000AFFFF7CFFF0346FB7000237B603CE0E0
:1017C800FA787B6842FA03F3DBB203F00103BB70DB
:1017D8001E4A7B68134403331B78DBB2BA789A42FB
:1017E8001CD11A4A7B68134406331B78DBB2042BDE
:1017F8000ED8164A7B68134406331B78DBB20133D4
:10180800D9B2124A7B68134406330A461A700BE0B1
:101818000E4A7B681344BA781A7005E00B4A7B6855
:101828001344063300221A70084A7B6813440333B2
:10183800BA781A707B6801337B607B68022BBFD94A
:1018480000BF00BF0837BD4680BD00BFC4030020ED
:1018580080B483B000AF0346FB71FB79044AD35CC4
:10186800DBB218460C37BD465DF8047B704700BFF5
:10187800C4030020B0B58CB000AF0346FB8002F073
:10188800EBFEFB885B001F4A13447B6200233B612D
:101898000B23BB6102233B620123FB6107F10C02AE
:1018A80007F110031146184603F038F80346002BD9
:1018B80002D002F0F3FE21E0134BFB620023BB626F
:1018C80017E0BB6A5B007A6A13441B889BB200224C
:1018D8001C46154622462B46F96A012002F06AFE8C
:1018E8000346002B02D1FB6A0233FB62BB6A013359
:1018F800BB62BB6A112BE4DD02F0D0FE3037BD4677
:10190800B0BD00BF1C25002000000E0880B487B0C1
:1019180000AF0346FB80FB885B00244A1344FB604E
:101928000023FB75224BBB6000233B6133E03B691E
:101938005B00BA6813441B884FF6FF72934227D0A6
:101948003B695B00BA6813441B88002B20D03B69B5
:101958005B00BA681A443B695B00F9680B4412885B
:101968001A803B6903F00103002B11D1114B1B684E
:101978001B881AB2FB7D012101FA03F31BB2134342
:101988001AB20C4B1B6892B21A80FB7D0133FB75AF
:101998003B6901333B613B69112BC8DD00BF00BFC8
:1019A8001C37BD465DF8047B704700BF1C2500202E
:1019B80000000E08F801002080B500AF02F050F8D2
:1019C80000F044F800F08CFC00F06AFC0BF024F8FE
:1019D80000F0A6F800F0D2F900F05EFA00F058F92D
:1019E80000F07CFB00F0CEFA00F042FB00F02EFC89
:1019F800FEF75EFD41F2883002F0A4F80620FFF7FA
:101A080085FFFEF71BFE01210020FFF733FE41F2A0
:101A180088310320FFF72EFE0BF0F2FC094805F091
:101A2800BDF90020FFF75EFE03461A46064B1A7002
:101A3800054B1B78012B01D100F048FE01F082F91B
:101A4800EFE700BF380500207006002080B594B08D
:101A580000AF07F120033022002118460CF096FA57
:101A680007F10C0300221A605A609A60DA601A6162
:101A78000023BB60284B1B6C274A43F08053136438
:101A8800254B1B6C03F08053BB60BB6800237B6055
:101A9800224B1B68214A43F4804313601F4B1B6889
:101AA80003F480437B607B6801233B624FF48033FF
:101AB8007B620223BB634FF48003FB6304233B6414
:101AC800A8237B640223BB640723FB6407F120037C
:101AD800184604F07BFC0346002B01D000F0D9FC2B
:101AE8000F23FB6002233B6100237B614FF4A0536B
:101AF800BB614FF4A053FB6107F10C0305211846A5
:101B080004F0DCFE0346002B01D000F0C2FC00BF4D
:101B18005037BD4680BD00BF00380240007000400D
:101B280080B59AB000AF07F1580300221A605A60D6
:101B38009A60DA6007F1440300221A605A609A60DA
:101B4800DA601A6107F13C0300221A605A6007F153
:101B5800200300221A605A609A60DA601A615A619A
:101B68009A613B462022002118460CF00FFA464B9A
:101B7800464A1A60444B53225A60434B00229A60EB
:101B8800414B40F2E732DA603F4B00221A613E4B8C
:101B980000225A613C4B80229A613B4805F0AEF81E
:101BA8000346002B01D000F074FC4FF48053BB6552
:101BB80007F158031946344805F034FC0346002B56
:101BC80001D000F066FC304805F058F90346002BB8
:101BD80001D000F05EFC05237B641023BB6407F191
:101BE80044031946284805F0E4FC0346002B01D0BD
:101BF80000F04FFC4023FB6380233B6407F13C0368
:101C08001946214806F0F0F80346002B01D000F0F1
:101C180040FC60233B6200237B620023BB620023FD
:101C2800FB6200233B6300237B630023BB6307F154
:101C3800200300221946144805F032FB0346002B06
:101C480001D000F026FC00233B6000237B600023CA
:101C5800BB600023FB6000233B614FF400537B61B2
:101C68000023FB613B461946074806F039F903464D
:101C7800002B01D000F00DFC034801F035FD00BF3A
:101C88006837BD4680BD00BFD0030020000001407A
:101C980080B58EB000AF07F1240300221A605A60A5
:101CA8009A60DA601A6107F11C0300221A605A6010
:101CB8003B4600221A605A609A60DA601A615A61DB
:101CC8009A612D4B4FF080421A602B4B00225A60CC
:101CD800294B00229A60284B40F2E732DA60264B03
:101CE80000221A61244B80229A61234805F006F8E5
:101CF8000346002B01D000F0CCFB1F4805F0BEF8CE
:101D08000346002B01D000F0C4FB07237B620023AD
:101D1800BB6207F124031946174805F04AFC03463D
:101D2800002B01D000F0B5FB5023FB6180233B6200
:101D380007F11C031946104806F056F80346002B15
:101D480001D000F0A6FB60233B6040F2E7337B60E4
:101D58000023BB6000233B613B460422194606482A
:101D680005F09EFA0346002B01D000F092FB00BF5D
:101D78003837BD4680BD00BF1804002080B592B03A
:101D880000AF07F1380300221A605A609A60DA60DF
:101D980007F1240300221A605A609A60DA601A6117
:101DA80007F11C0300221A605A603B4600221A60A1
:101DB8005A609A60DA601A615A619A61344B354AFE
:101DC8001A60334B53225A60314B00229A60304BD1
:101DD80040F2E732DA602E4B00221A612C4B802247
:101DE8009A612B4804F08AFF0346002B01D000F0CB
:101DF80050FB4FF48053BB6307F13803194624485E
:101E080005F010FB0346002B01D000F042FB2048F0
:101E180005F034F80346002B01D000F03AFB052307
:101E28007B622023BB6207F124031946184805F09A
:101E3800C0FB0346002B01D000F02BFB4023FB61C5
:101E480080233B6207F11C031946114805F0CCFFBB
:101E58000346002B01D000F01CFB60233B600023ED
:101E68007B600023BB6000233B613B460022194690
:101E7800074805F015FA0346002B01D000F009FBCE
:101E8800034801F031FC00BF4837BD4680BD00BFA4
:101E9800600400200004004080B58EB000AF07F158
:101EA800240300221A605A609A60DA601A6107F106
:101EB8001C0300221A605A603B4600221A605A60CE
:101EC8009A60DA601A615A619A612C4B2C4A1A603E
:101ED8002A4B00225A60294B00229A60274B40F275
:101EE800E732DA60254B00221A61244B80229A617E
:101EF800224804F003FF0346002B01D000F0C9FA82
:101F08001E4804F0BBFF0346002B01D000F0C1FAC5
:101F180007237B623023BB6207F124031946174865
:101F280005F047FB0346002B01D000F0B2FA40232E
:101F3800FB6180233B6207F11C0319460F4805F03B
:101F480053FF0346002B01D000F0A3FA60233B6047
:101F580040F2E7337B600023BB6000233B613B46D4
:101F680000221946054805F09BF90346002B01D0CD
:101F780000F08FFA00BF3837BD4680BDA8040020A6
:101F88000008004080B58EB000AF07F1240300229E
:101F98001A605A609A60DA601A6107F11C0300221D
:101FA8001A605A603B4600221A605A609A60DA60EA
:101FB8001A615A619A612C4B2C4A1A602A4B0022EA
:101FC8005A60294B00229A60274B40F2E732DA60C8
:101FD800254B00221A61244B80229A61224804F082
:101FE8008DFE0346002B01D000F053FA1E4804F082
:101FF80045FF0346002B01D000F04BFA07237B6214
:102008001023BB6207F124031946174805F0D1FADB
:102018000346002B01D000F03CFA4023FB618023EB
:102028003B6207F11C0319460F4805F0DDFE034625
:10203800002B01D000F02DFA60233B6040F2E7331B
:102048007B600023BB6000233B613B4600221946AE
:10205800054805F025F90346002B01D000F019FAD0
:1020680000BF3837BD4680BDF0040020000C00409A
:1020780080B582B000AF3B4600221A605A60154B0B
:10208800154A1A60134B53225A60124B00229A6069
:10209800104B40F2E732DA600E4B80229A610D480D
:1020A80004F02CFE0346002B01D000F0F2F90023C7
:1020B8003B6000237B603B461946064805F094FECA
:1020C8000346002B01D000F0E4F900BF0837BD46F5
:1020D80080BD00BF380500200014004080B59AB0CC
:1020E80000AF07F1580300221A605A609A60DA605C
:1020F80007F1440300221A605A609A60DA601A6194
:1021080007F13C0300221A605A6007F120030022FD
:102118001A605A609A60DA601A615A619A613B469D
:102128002022002118460BF031FF464B464A1A6020
:10213800444B53225A60434B00229A60414B40F271
:10214800E732DA603F4B00221A613E4B00225A61A7
:102158003C4B80229A613B4804F0D0FD0346002B9B
:1021680001D000F096F94FF48053BB6507F158038E
:102178001946344805F056F90346002B01D000F003
:1021880088F9304804F07AFE0346002B01D000F0AD
:1021980080F905237B642023BB6407F144031946B7
:1021A800284805F006FA0346002B01D000F071F923
:1021B8006023FB6380233B6407F13C0319462148F5
:1021C80005F012FE0346002B01D000F062F96023EF
:1021D8003B6200237B620023BB620023FB62002377
:1021E8003B6300237B630023BB6307F120030822C2
:1021F8001946144805F054F80346002B01D000F0A6
:1022080048F900233B6000237B600023BB60002368
:10221800FB6000233B614FF400537B610023FB61AB
:102228003B461946074805F05BFE0346002B01D0E4
:1022380000F02FF9034801F057FA00BF6837BD4690
:1022480080BD00BF800500200004014080B500AFBC
:10225800114B124A1A60104B4FF4E1325A600E4B80
:1022680000229A600C4B0022DA600B4B00221A61A4
:10227800094B0C225A61084B00229A61064B002236
:10228800DA61054805F092FE0346002B01D000F004
:1022980000F900BF80BD00BFC80500200044004011
:1022A80080B582B000AF00237B600C4B1B6B0B4AE0
:1022B80043F400131363094B1B6B03F400137B6097
:1022C8007B6800220221102001F03BFD102001F064
:1022D80054FD00BF0837BD4680BD00BF003802402E
:1022E80080B58AB000AF07F1140300221A605A6063
:1022F8009A60DA601A6100233B615C4B1B6B5B4A96
:1023080043F010031363594B1B6B03F010033B613D
:102318003B690023FB60554B1B6B544A43F0800319
:102328001363524B1B6B03F08003FB60FB680023B5
:10233800BB604E4B1B6B4D4A43F0040313634B4B7E
:102348001B6B03F00403BB60BB6800237B60474B37
:102358001B6B464A43F001031363444B1B6B03F0AA
:1023680001037B607B6800227F21414802F0AAFDBF
:1023780000224FF420713F4802F0A4FD00224FF4E0
:1023880002413D4802F09EFD7F237B610123BB6132
:102398000023FB6100233B6207F11403194634480C
:1023A80002F0DCFB07237B614FF48813BB61002339
:1023B800FB6107F1140319462E4802F0CFFB4FF4D6
:1023C800FC537B610023BB610023FB6107F114030D
:1023D8001946274802F0C2FB4FF420737B610123A2
:1023E800BB610023FB6103233B6207F11403194619
:1023F800204802F0B3FB4FF400737B610123BB61FB
:102408000023FB6103233B6207F1140319461A48B2
:1024180002F0A4FB4FF400437B610123BB6100235E
:10242800FB6100233B6207F114031946124802F0CE
:1024380095FB00220021062001F083FC062001F014
:102448009CFC00220021072001F07BFC072001F002
:1024580094FC00220021082001F073FC082001F000
:102468008CFC00BF2837BD4680BD00BF0038024045
:1024780000100240000802400000024080B483B00F
:1024880000AF0346FB8000BF0C37BD465DF8047BF8
:10249800704780B400AF72B600BF00BFFDE7000010
:1024A80080B400AF084B1A68137843F00203137026
:1024B800054B1A6813786FF30003137000BFBD460D
:1024C8005DF8047B704700BFF001002080B582B042
:1024D80000AF0023FB7000237B608FE04C4B1B6830
:1024E8001B781A467B6842FA03F303F00103002BBA
:1024F80014BF01230023DBB2FB70FB78012B3AD118
:1025080044497A6813465B0013449B000B44043328
:102518001B68591C3F487A6813465B0013449B00AC
:102528000344043319603B497A6813465B0013443B
:102538009B000B4404331B68B3F5967F52D335498F
:102548007A6813465B0013449B000B4408331B78DE
:10255800002B47D12F497A6813465B0013449B0030
:102568000B44083301221A702B4A7B6852F8233037
:102578000120984736E027497A6813465B001344E0
:102588009B000B441B78012B2CD122497A681346F7
:102598005B0013449B000B4404331B68B3F5967F20
:1025A80006D21D4A7B6852F823300220984705E07E
:1025B800194A7B6852F823300320984715497A68EE
:1025C80013465B0013449B000B44043300221A603B
:1025D80010497A6813465B0013449B000B44083388
:1025E80000221A700B497A6813465B0013449B005B
:1025F8000B44FA781A707B6801337B607B68052B83
:102608007FF66CAF00BF00BF0837BD4680BD00BF76
:10261800EC010020840600202000002080B483B054
:1026280000AF0023FB71264B1B681B78C3F38003A4
:10263800DBB2FB71FB79012B1ED1224BDB69013325
:10264800204AD3611F4BDB69B3F5967F2FD31D4B0F
:1026580093F82030002B2AD11A4B012283F820202E
:10266800194B1B78002B03D0174B00221A701EE061
:10267800154B01221A701AE0124B1B7E012B16D142
:10268800104BDB69B3F5967F0AD20F4B1B78002BF2
:1026980003D00D4B00221A7002E00B4B01221A7076
:1026A800084B0022DA61074B002283F82020054AF4
:1026B800FB79137600BF0C37BD465DF8047B704785
:1026C80000020020CC0600207406002080B582B0ED
:1026D80000AF3C4B1B78012B05D13B4B1B78002BE3
:1026E80001D100F0B7F9394B1B681B7803F00103DF
:1026F800DBB2002B28D0364B1B681B78FB70FB78AD
:1027080093FAA3F2B2FA82F2002B01D14FF0FF3212
:10271800531CDBB2013BDBB25AB22E4B1A702D4B65
:1027280093F90030002B0CDB2A4B93F900301A4642
:10273800294B53F82230274A92F90020D2B210468A
:102748009847FFF76BFF39E0204B1B681B7803F0B5
:102758000203DBB2002B31D0204B1B78DBB2002BFD
:102768002CD11F4B1B681B881A041E4B1B681B7837
:102778001B0213431C4A1268127813437B607B6860
:1027880093FAA3F2B2FA82F2002B01D14FF0FF3292
:10279800531CDBB2073BDBB25AB20E4B1A700D4B1F
:1027A80093F90030002B07DB0A4B93F900300F4AEE
:1027B800DB0013445B689847FFF788FE00BF0837C3
:1027C800BD4680BD7306002074060020F00100207D
:1027D80000020020710600200400002000000020F4
:1027E800F4010020FC010020EC010020380000204A
:1027F80080B52DED028B88B000AF786039607B68BA
:1028080003F00103002B04D03B68C3F10C03FB6108
:1028180001E03B68FB61FB6907EE903AB8EEE77AA6
:102828003B4BD3ED007A67EE277AC7ED067A7B68D3
:1028380007EE903AB8EEE77A364BD3ED007A67EEBA
:10284800277AC7ED057A344B1B681B8807EE903A48
:10285800B8EEE78A314BD3ED007AB0EE670A0BF099
:102868003FFCB0EE407AD7ED067A67EE277A38EE6D
:10287800278A2A4BD3ED007AB0EE670A0BF074FC76
:10288800B0EE407AD7ED057A67EE277A78EE677A68
:10289800FCEEE77A17EE903A9BB2BB811E4B1B68A1
:1028A8005B8807EE903AB8EEE78A1C4BD3ED007AC6
:1028B800B0EE670A0BF058FCB0EE407AD7ED067A16
:1028C80067EE277A38EE278A144BD3ED007AB0EEFC
:1028D800670A0BF005FCB0EE407AD7ED057A67EE93
:1028E800277A78EE277AFCEEE77A17EE903A9BB2D1
:1028F800FB81FB683B6100233A8A62F30F037A8A03
:1029080062F31F4318462037BD46BDEC028B80BDDD
:10291800780600207C0600200402002080060020A3
:1029280080B584B000AF7860434B1B78002B27D16B
:10293800FEF73CF90346002B79D1404B93F9003060
:102948001A463F4B93F9003019461046FFF750FFDF
:102958000346FB60BB891A463A4B1A60FB891A4644
:10296800394B1A60374B1B68374A11689FED370A95
:1029780000221846FEF70EFB2F4B01221A7056E074
:10298800FEF714F90346002B51D17B681B880133ED
:102998009AB27B681A807B681B88632B38D97B685E
:1029A80000221A80244B00221A70264B1B68264AE4
:1029B80011689FED270A00221846FEF7EBFA204B14
:1029C80093F90030DBB20133DBB25AB21C4B1A70F8
:1029D8001B4B93F90030DBB20C2B0BD9184B0022A0
:1029E8001A70164B93F90030DBB20133DBB25AB2DE
:1029F800124B1A70114B93F90030DBB20C2B16D91D
:102A08000E4B00221A700E4B00221A7001230FE0A1
:102A18007B681B88012B0AD10A4B1B680A4A11687C
:102A28009FED0B0A41F658321846FEF7B3FA002319
:102A380018461037BD4680BD7506002020070020C7
:102A480021070020240700202807002000409C467A
:102A58000060EA4698B52DED028B00AFAC4B1B68C1
:102A68001B7803F00803DBB2002B0FD0A84B1B68C0
:102A78001B7803F00803DBB2002B07D0A44B1B68BC
:102A88001B7803F00803DBB2002B03D1A14B002213
:102A98001A7039E1A04B1B78002B03D0012B00F0F2
:102AA800138131E106200AF055FD03461C46082033
:102AB8000AF050FD03462344DA0F13445B109AB220
:102AC800964B1A8007200AF045FD03461C460B204A
:102AD8000AF040FD03462344DA0F13445B109AB210
:102AE8008F4B1A808D4B1B88002B00F008818C4B74
:102AF8001B88002B00F00381884B1B881846884BE5
:102B08001B889FED880A00221946FEF743FAFEF754
:102B18004DF80346002B40F0F480834B1B880133AB
:102B28009AB2814B1A80804B1B88632B40F2BB8082
:102B38007E4B1B689B8807EE903AB8EE677A7B4B12
:102B48001B681B8807EE903AF8EE677A77EE677A8B
:102B5800F0EE000AB0EE670A0BF04CFAB0EE408ACD
:102B6800724B1B68DB8807EE903AB8EE677A6F4BBA
:102B78001B685B8807EE903AF8EE677A77EE677A1B
:102B8800F0EE000AB0EE670A0BF034FAF0EE407A85
:102B980078EE277AB0EE670A0BF084FAB0EE407A46
:102BA800F2EE086AC7EE267A614BC3ED007A5F4BF6
:102BB8001B681B8907EE903AB8EE677A5B4B1B6877
:102BC8001B8807EE903AF8EE677A77EE677AF0EEB0
:102BD800000AB0EE670A0BF00DFAB0EE408A534BCC
:102BE8001B685B8907EE903AB8EE677A4F4B1B6813
:102BF8005B8807EE903AF8EE677A77EE677AF0EE40
:102C0800000AB0EE670A0BF0F5F9F0EE407A78EEBC
:102C1800277AB0EE670A0BF045FAB0EE407AF2EE8A
:102C2800086AC7EE267A434BC3ED007A3F4B1B6810
:102C3800DB8807EE903AB8EE677A3C4B1B685B88F6
:102C480007EE903AF8EE677A77EE676A374B1B68BB
:102C58009B8807EE903AB8EE677A344B1B681B885E
:102C680007EE903AF8EE677A77EE677AF0EE670A41
:102C7800B0EE660A0BF0BCF9F0EE407A2E4BC3EDCD
:102C8800007A264B1B881846254B1B889FED2B0A7C
:102C980000221946FEF77EF9234B00221A801E4BAC
:102CA80001221A702DE0204B1B88012B29D11B4BC8
:102CB8001B8818461A4B1B889FED200A41F658328C
:102CC8001946FEF767F91CE01748FFF729FE034687
:102CD800002B18D0114B1B881846114B1B889FEDF1
:102CE800180A00221946FEF755F90B4B01221A70F3
:102CF800084B00221A700C4B00221A8003E000BF18
:102D080002E000BF00E000BFBD46BDEC028B98BDED
:102D1800F8010020730600202C0700202E07002051
:102D28003007002000409C463207002004020020A3
:102D3800780600207C060020800600200060EA4615
:102D480000401C4680B500AFFEF730FD0C4B1B78E9
:102D5800DBB2002B12D00B4B00221A700A4B002258
:102D68001A700748FDF742FF0346002B06D0FDF70F
:102D7800DFFB034B00221A700AF002FC00BF80BD83
:102D880000000020730600207506002080B483B080
:102D980000AF0346FB7100BF0C37BD465DF8047BEE
:102DA8007047000080B483B000AF0346FB71044B4A
:102DB80001221A7000BF0C37BD465DF8047B7047CE
:102DC8007306002080B483B000AF0346FB7100BFD8
:102DD8000C37BD465DF8047B704780B483B000AF04
:102DE8000346FB7100BF0C37BD465DF8047B704796
:102DF80080B483B000AF0346FB7100BF0C37BD46FB
:102E08005DF8047B704780B483B000AF0346FB7164
:102E180000BF0C37BD465DF8047B704780B483B0B3
:102E280000AF0346FB7100BF0C37BD465DF8047B5D
:102E3800704780B582B000AF0346FB71FB79002272
:102E480019460020FEF732F900BF0837BD4680BD9D
:102E580080B582B000AF0346FB71FB7901221946A9
:102E68000020FEF723F900BF0837BD4680BD80B5B6
:102E780082B000AF0346FB71FB790022194601209E
:102E8800FEF714F900BF0837BD4680BD80B582B093
:102E980000AF0346FB71FB79012219460120FEF7BA
:102EA80005F900BF0837BD4680BD80B582B000AFC8
:102EB8000346FB71FB79002219460220FEF7F6F85B
:102EC80000BF0837BD4680BD80B582B000AF03465D
:102ED800FB71FB79012219460220FEF7E7F800BFD3
:102EE8000837BD4680BD80B400AF00BFBD465DF861
:102EF800047B704780B400AF00BFBD465DF8047B1B
:102F0800704780B400AF00BFBD465DF8047B7047D2
:102F180080B400AF00BFBD465DF8047B7047000079
:102F280080B500AF2E4B1B78032B38D0032B54DC15
:102F3800012B02D0022B19D04FE0FDF737FE0346D4
:102F4800002B45D1062100200AF02CFB0620FEF7B5
:102F580091FC244B1A68137843F001031370204B3B
:102F680000221A7003200AF03FFB31E0FDF71EFE35
:102F78000346002B2ED1082100200AF013FB06205F
:102F8800FEF778FC174B1A68137843F002031370A6
:102F9800134B00221A7003200AF026FB1AE0FDF7F3
:102FA80005FE0346002B17D10A2100200AF0FAFA81
:102FB8000620FEF75FFC0B4B1A68137843F00403F6
:102FC8001370074B00221A7003200AF00DFB03E070
:102FD80000BF02E000BF00E000BF00BF80BD00BF2F
:102FE80072060020F801002080B500AF2E4B1B7838
:102FF800062B38D0062B54DC042B02D0052B19D015
:103008004FE0FDF7D3FD0346002B45D10C210020EE
:103018000AF0C8FA0620FEF72DFC244B1A6813782C
:1030280043F008031370204B00221A7003200AF0A3
:10303800DBFA31E0FDF7BAFD0346002B2ED10E2155
:1030480000200AF0AFFA0620FEF714FC174B1A68A6
:10305800137843F010031370134B00221A700320E7
:103068000AF0C2FA1AE0FDF7A1FD0346002B17D1BA
:10307800102100200AF096FA0620FEF7FBFB0B4B06
:103088001A68137843F020031370074B00221A7054
:1030980003200AF0A9FA03E000BF02E000BF00E045
:1030A80000BF00BF80BD00BF72060020F8010020ED
:1030B80080B500AF304B1B78092B38D0092B59DC71
:1030C800072B02D0082B19D054E0FDF76FFD0346FB
:1030D800002B4AD1122100200AF064FA0620FEF7DC
:1030E800C9FB264B1A68137843F04003137003207A
:1030F8000AF07AFA204B00221A7036E0FDF756FDE6
:103108000346002B33D1142100200AF04BFA062085
:10311800FEF7B0FB194B1A68137843F0800313705D
:1031280003200AF061FA144B00221A701FE0FDF721
:103138003DFD0346002B1CD1162100200AF032FA6F
:10314800FDF734FD0346002B02D10620FEF792FB63
:103158000A4B1A68537843F00103537004200AF0AD
:1031680043FA054B00221A7003E000BF02E000BFDB
:1031780000E000BF00BF80BD72060020F8010020FB
:1031880098B500AF914B1B78013B082B00F2FC80EF
:1031980001A252F823F000BFC5310008F931000838
:1031A8002D3200086132000895320008C932000843
:1031B800FB3200082D3300085F330008FDF7F6FCEA
:1031C8000346002B40F0E28006200AF0C3F90346CC
:1031D8001C4607200AF0BEF903469FED7D0A00222F
:1031E80019462046FDF7D6FE03200AF0FDF9CDE08A
:1031F800FDF7DCFC0346002B40F0CA8008200AF0EB
:10320800A9F903461C4609200AF0A4F903469FEDD4
:10321800700A002219462046FDF7BCFE03200AF07A
:10322800E3F9B5E0FDF7C2FC0346002B40F0B2809D
:103238000A200AF08FF903461C460B200AF08AF987
:1032480003469FED630A002219462046FDF7A2FEB9
:1032580003200AF0C9F99DE0FDF7A8FC0346002BFE
:1032680040F09A800C200AF075F903461C460D20A0
:103278000AF070F903469FED560A002219462046C7
:10328800FDF788FE03200AF0AFF985E0FDF78EFC14
:103298000346002B40F082800E200AF05BF90346BB
:1032A8001C460F200AF056F903469FED490A0022F2
:1032B80019462046FDF76EFE03200AF095F96DE0E9
:1032C800FDF774FC0346002B6AD110200AF042F97E
:1032D80003461C4611200AF03DF903469FED3C0ABF
:1032E800002219462046FDF755FE03200AF07CF916
:1032F80056E0FDF75BFC0346002B53D112200AF081
:1033080029F903461C4613200AF024F903469FEDC9
:10331800300A002219462046FDF73CFE03200AF039
:1033280063F93FE0FDF742FC0346002B3CD1142033
:103338000AF010F903461C4615200AF00BF903465B
:103348009FED230A002219462046FDF723FE03209D
:103358000AF04AF928E0FDF729FC0346002B25D19D
:1033680016200AF0F7F803461C4617200AF0F2F870
:1033780003469FED170A002219462046FDF70AFE6C
:1033880004200AF031F911E000BF10E000BF0EE0A0
:1033980000BF0CE000BF0AE000BF08E000BF06E085
:1033A80000BF04E000BF02E000BF00E000BF022051
:1033B8000AF01AF9054B00221A70064B1A6853785E
:1033C80043F00203537000BF98BD00BF720600208F
:1033D80000409C46F801002080B400AF034B012256
:1033E8001A7000BFBD465DF8047B70477206002066
:1033F80080B400AF034B02221A7000BFBD465DF8CF
:10340800047B70477206002080B400AF034B032290
:103418001A7000BFBD465DF8047B70477206002035
:1034280080B400AF034B04221A7000BFBD465DF89C
:10343800047B70477206002080B400AF034B05225E
:103448001A7000BFBD465DF8047B70477206002005
:1034580080B400AF034B06221A7000BFBD465DF86A
:10346800047B70477206002080B400AF034B07222C
:103478001A7000BFBD465DF8047B704772060020D5
:1034880080B400AF034B08221A7000BFBD465DF838
:10349800047B70477206002080B400AF034B0922FA
:1034A8001A7000BFBD465DF8047B704772060020A5
:1034B80080B500AF074B1B881846064B5B8819463A
:1034C800044B9B889FED040A1A46FDF763FD00BF75
:1034D80080BD00BF1C25002000409C4680B400AF82
:1034E800064B1B78DBB2002B02D1044B01221A7069
:1034F80000BFBD465DF8047B704700BF0000002098
:1035080080B582B000AF00237B60214B5B6C204A02
:1035180043F4804353641E4B5B6C03F480437B602D
:103528007B6800233B601A4B1B6C194A43F080539D
:103538001364174B1B6C03F080533B603B680022FD
:1035480001216FF00B0000F0FCFB002201216FF05D
:103558000A0000F0F6FB002201216FF0090000F0DC
:10356800F0FB002201216FF0040000F0EAFB0022CA
:1035780001216FF0030000F0E4FB002201216FF04D
:10358800010000F0DEFB00BF0837BD4680BD00BF6C
:103598000038024080B58AB000AF78607B681B684D
:1035A8004A4A93420ED100237B62494B5B6C484ADE
:1035B80043F001035364464B5B6C03F001037B62E9
:1035C8007B6A7EE07B681B68B3F1804F0ED10023D5
:1035D8003B623F4B1B6C3E4A43F0010313643C4B78
:1035E8001B6C03F001033B623B6A6AE07B681B6863
:1035F800384A93420ED10023FB61354B1B6C344A89
:1036080043F002031364324B1B6C03F00203FB61AB
:10361800FB6956E07B681B682F4A93420ED1002352
:10362800BB612B4B1B6C2A4A43F004031364284BE1
:103638001B6C03F00403BB61BB6942E07B681B6839
:10364800264A93420ED100237B61214B1B6C204AF2
:1036580043F0080313641E4B1B6C03F008037B61E3
:103668007B692EE07B681B681D4A934216D10023B4
:103678003B61174B1B6C164A43F020031364144B31
:103688001B6C03F020033B613B69002201213720BA
:1036980000F057FB372000F070FB12E07B681B68D6
:1036A800104A93420DD10023FB60094B5B6C084A1A
:1036B80043F002035364064B5B6C03F00203FB60A8
:1036C800FB6800BF2837BD4680BD00BF0000014031
:1036D800003802400004004000080040000C004090
:1036E800001400400004014080B58AB000AF786043
:1036F80007F1140300221A605A609A60DA601A61AE
:103708007B681B68374A93421FD100233B61364BC5
:103718001B6B354A43F001031363334B1B6B03F0F8
:1037280001033B613B694FF480737B610223BB61FA
:103738000023FB6100233B6201237B6207F1140332
:1037480019462A4801F00AFA47E07B681B68284AAC
:1037580093421ED10023FB60234B1B6B224A43F08C
:1037680004031363204B1B6B03F00403FB60FB682B
:1037780040237B610223BB610023FB6100233B6282
:1037880002237B6207F1140319461A4801F0E6F98F
:1037980023E07B681B68184A93421ED10023BB6054
:1037A800114B1B6B104A43F0040313630E4B1B6B46
:1037B80003F00403BB60BB684FF480737B61022392
:1037C800BB610023FB6100233B6203237B6207F19B
:1037D80014031946074801F0C1F900BF2837BD4650
:1037E80080BD00BF000001400038024000000240D8
:1037F80000040040000802400004014080B58AB07F
:1038080000AF786007F1140300221A605A609A60CA
:10381800DA601A617B681B68344A934261D10023DD
:103828003B61334B1B6C324A43F400331364304B17
:103838001B6C03F400333B613B690023FB602C4B9A
:103848001B6B2B4A43F001031363294B1B6B03F0DB
:103858000103FB60FB680C237B610223BB6100232F
:10386800FB6103233B6207237B6207F114031946BC
:10387800204801F073F9204B204A1A601E4B4FF084
:1038880000625A601C4B00229A601B4B0022DA60CF
:10389800194B4FF480621A61174B00225A61164B7C
:1038A80000229A61144B0022DA61134B00221A623B
:1038B800114B00225A62104800F07AFA0346002B96
:1038C80001D0FEF7E6FD7B680B4ADA630A4A7B689B
:1038D800936300220221262000F033FA262000F00C
:1038E8004CFA00BF2837BD4680BD00BF00440040E9
:1038F80000380240000002401006002088600240A4
:1039080080B400AF00BFFDE780B400AF00BFFDE7A3
:1039180080B400AF00BFFDE780B400AF00BFFDE793
:1039280080B400AF00BFFDE780B400AF00BFBD4664
:103938005DF8047B704780B400AF00BFBD465DF8FA
:10394800047B704780B400AF00BFBD465DF8047BC0
:10395800704780B500AF00F0D5F800BF80BD80B5D6
:1039680000AFFDF73DF8012001F0C6FA00BF80BDA9
:1039780080B500AFFDF77CF8022001F0BDFA00BF6A
:1039880080BD80B500AFFDF7BDF8042001F0B4FAA2
:1039980000BF80BD80B500AF024800F0A1FB00BFAA
:1039A80080BD00BF1006002080B500AF024804F0BB
:1039B80031FC00BF80BD00BFC805002080B500AF46
:1039C800FDF70EFE024803F07BFB00BF80BD00BF81
:1039D8003805002080B500AF024801F0E9FB00BFC0
:1039E80080BD00BF181C002080B400AF064BD3F880
:1039F8008830054A43F47003C2F8883000BFBD46DA
:103A08005DF8047B704700BF00ED00E0DFF834D0BC
:103A1800FFF7EAFF0C480D490D4A002302E0D4588D
:103A2800C4500433C4188C42F9D30A4A0A4C002300
:103A380001E013600432A242FBD30AF0B5FAFDF7A5
:103A4800BBFF704700000220000000205802002041
:103A5800E0FD00085802002084270020FEE700004F
:103A680080B500AF0E4B1B680D4A43F4007313601A
:103A78000B4B1B680A4A43F480631360084B1B68AE
:103A8800074A43F480731360032000F04FF90F20B6
:103A980000F008F8FFF734FD0023184680BD00BF8A
:103AA800003C024080B582B000AF7860124B1A68C3
:103AB800124B1B7819464FF47A73B3FBF1F3B2FB40
:103AC800F3F3184600F067F90346002B01D00123F1
:103AD8000EE07B680F2B0AD8002279684FF0FF3080
:103AE80000F02FF9064A7B681360002300E00123E9
:103AF80018460837BD4680BDD0000020D8000020F9
:103B0800D400002080B400AF064B1B781A46064B41
:103B18001B681344044A136000BFBD465DF8047B6C
:103B2800704700BFD80000203407002080B400AFE1
:103B3800034B1B681846BD465DF8047B704700BF01
:103B48003407002080B584B000AF7860FFF7EEFF3F
:103B5800B8607B68FB60FB68B3F1FF3F05D00A4B98
:103B68001B781A46FB681344FB6000BFFFF7DEFFB3
:103B78000246BB68D31AFA689A42F7D800BF00BF5A
:103B88001037BD4680BD00BFD800002080B485B086
:103B980000AF78607B6803F00703FB600C4BDB68C1
:103BA800BB60BA684FF6FF031340BB60FB681A029C
:103BB800BB68134343F0BF6343F40033BB60044A5C
:103BC800BB68D36000BF1437BD465DF8047B7047FF
:103BD80000ED00E080B400AF044BDB681B0A03F083
:103BE80007031846BD465DF8047B704700ED00E00A
:103BF80080B483B000AF0346FB7197F90730002B00
:103C08000BDBFB7903F01F02074997F907305B09C3
:103C1800012000FA02F241F8232000BF0C37BD460C
:103C28005DF8047B704700BF00E100E080B483B01A
:103C380000AF03463960FB7197F90730002B0ADBA8
:103C48003B68DAB20C4997F907301201D2B20B443B
:103C580083F800230AE03B68DAB20849FB7903F0ED
:103C68000F03043B1201D2B20B441A7600BF0C3783
:103C7800BD465DF8047B704700E100E000ED00E020
:103C880080B489B000AFF860B9607A60FB6803F06F
:103C98000703FB61FB69C3F10703042B28BF042357
:103CA800BB61FB690433062B02D9FB69033B00E0C7
:103CB80000237B614FF0FF32BB6902FA03F3DA435A
:103CC800BB681A407B699A404FF0FF317B6901FA63
:103CD80003F3D9437B680B40134318462437BD468A
:103CE8005DF8047B7047000080B582B000AF786053
:103CF8007B68013BB3F1807F01D301230FE00A4ABF
:103D08007B68013B53600F214FF0FF30FFF78EFFB8
:103D1800054B00229A60044B07221A6000231846BC
:103D28000837BD4680BD00BF10E000E080B582B016
:103D380000AF78607868FFF729FF00BF0837BD46F5
:103D480080BD80B586B000AF0346B9607A60FB736A
:103D580000237B61FFF73EFF78617A68B96878696C
:103D6800FFF78EFF024697F90F3011461846FFF706
:103D78005DFF00BF1837BD4680BD80B582B000AF7B
:103D88000346FB7197F907301846FFF731FF00BF6C
:103D98000837BD4680BD80B582B000AF78607868CE
:103DA800FFF7A2FF034618460837BD4680BD00004E
:103DB80080B586B000AF786000237B61FFF7B6FE60
:103DC80038617B68002B01D1012399E07B680222CE
:103DD80083F835207B68002283F834207B681B68D1
:103DE8001A687B681B6822F001021A600FE0FFF76F
:103DF8009DFE02463B69D31A052B08D97B68202211
:103E08005A657B68032283F83520032378E07B68B2
:103E18001B681B6803F00103002BE8D17B681B6853
:103E28001B687B617A69384B13407B617B685A68F1
:103E38007B689B681A437B68DB681A437B681B694D
:103E48001A437B685B691A437B689B691A437B68E2
:103E5800DB691A437B681B6A13437A6913437B61E6
:103E68007B685B6A042B07D17B68DA6A7B681B6B0B
:103E780013437A6913437B617B681B687A691A600C
:103E88007B681B685B697B617B6923F007037B6147
:103E98007B685B6A7A6913437B617B685B6A042B86
:103EA80017D17B689B6A7A6913437B617B68DB6AFD
:103EB800002B0ED0786800F001FB0346002B08D0D9
:103EC8007B6840225A657B68012283F835200123EC
:103ED80016E07B681B687A695A61786800F0B8FA5E
:103EE8000346FB607B68DB6D3F229A40FB689A6063
:103EF8007B6800225A657B68012283F835200023FD
:103F080018461837BD4680BD3F8010F080B586B092
:103F180000AFF860B9607A603B600023FB75FB680E
:103F28009B6D3B61FB6893F83430012B01D1022370
:103F380040E0FB68012283F83420FB6893F83530B1
:103F4800DBB2012B2FD1FB68022283F83520FB68F6
:103F580000225A653B687A68B968F86800F04AFA3E
:103F6800FB68DB6D3F229A403B699A60FB681B68DF
:103F78001A68FB681B6842F016021A60FB681B6C23
:103F8800002B07D0FB681B681A68FB681B6842F0A7
:103F980008021A60FB681B681A68FB681B6842F015
:103FA80001021A6005E0FB68002283F8342002232E
:103FB800FB75FB7D18461837BD4680BD80B584B0BB
:103FC80000AF78607B689B6DFB60FFF7AFFDB86062
:103FD8007B6893F83530DBB2022B08D07B688022EF
:103FE8005A657B68002283F83420012352E07B68FD
:103FF8001B681A687B681B6822F016021A607B68C7
:104008001B685A697B681B6822F080025A617B68CA
:104018001B6C002B03D17B689B6C002B07D07B6843
:104028001B681A687B681B6822F008021A607B68A4
:104038001B681A687B681B6822F001021A6013E08B
:10404800FFF774FD0246BB68D31A052B0CD97B68B1
:1040580020225A657B68032283F835207B6800227A
:1040680083F83420032315E07B681B681B6803F082
:104078000103002BE4D17B68DB6D3F229A40FB688B
:104088009A607B68012283F835207B68002283F8D8
:104098003420002318461037BD4680BD80B483B055
:1040A80000AF78607B6893F83530DBB2022B04D020
:1040B8007B6880225A6501230CE07B68052283F81F
:1040C80035207B681B681A687B681B6822F0010230
:1040D8001A60002318460C37BD465DF8047B70470C
:1040E80080B586B000AF78600023BB608E4B1B683C
:1040F8008E4AA2FB03239B0A7B617B689B6D3B6115
:104108003B691B68FB607B68DB6D08229A40FB6893
:104118001340002B1AD07B681B681B6803F004034C
:10412800002B13D07B681B681A687B681B6822F019
:1041380004021A607B68DB6D08229A403B699A602A
:104148007B685B6D43F001027B685A657B68DB6DB9
:1041580001229A40FB681340002B12D07B681B6831
:104168005B6903F08003002B0BD07B68DB6D0122B9
:104178009A403B699A607B685B6D43F002027B68FA
:104188005A657B68DB6D04229A40FB681340002B5C
:1041980012D07B681B681B6803F00203002B0BD04E
:1041A8007B68DB6D04229A403B699A607B685B6D93
:1041B80043F004027B685A657B68DB6D10229A40E5
:1041C800FB681340002B43D07B681B681B6803F017
:1041D8000803002B3CD07B68DB6D10229A403B69BA
:1041E8009A607B681B681B6803F48023002B18D037
:1041F8007B681B681B6803F40023002B08D17B68CD
:104208001B6C002B24D07B681B6C786898471FE0D8
:104218007B689B6C002B1BD07B689B6C78689847ED
:1042280016E07B681B681B6803F48073002B07D1BA
:104238007B681B681A687B681B6822F008021A6092
:104248007B681B6C002B03D07B681B6C78689847D5
:104258007B68DB6D20229A40FB681340002B00F03E
:104268008F807B681B681B6803F01003002B00F02D
:1042780087807B68DB6D20229A403B699A607B6867
:1042880093F83530DBB2052B36D17B681B681A688A
:104298007B681B6822F016021A607B681B685A69E3
:1042A8007B681B6822F080025A617B681B6C002BBC
:1042B80003D17B689B6C002B07D07B681B681A684E
:1042C8007B681B6822F008021A607B68DB6D3F225E
:1042D8009A403B699A607B68012283F835207B68A5
:1042E800002283F834207B681B6D002B7ED07B680E
:1042F8001B6D7868984779E07B681B681B6803F436
:104308008023002B1DD07B681B681B6803F40023E7
:10431800002B0DD17B685B6C002B31D07B685B6C0C
:10432800786898472CE000BFD0000020B5814E1B6C
:104338007B68DB6B002B23D07B68DB6B7868984746
:104348001EE07B681B681B6803F48073002B0FD189
:104358007B681B681A687B681B6822F010021A6069
:104368007B68012283F835207B68002283F834209B
:104378007B68DB6B002B03D07B68DB6B7868984726
:104388007B685B6D002B32D07B685B6D03F00103AB
:10439800002B22D07B68052283F835207B681B68B8
:1043A8001A687B681B6822F001021A60BB68013337
:1043B800BB607A699A4207D37B681B681B6803F065
:1043C8000103002BF2D100E000BF7B68012283F8D3
:1043D80035207B68002283F834207B68DB6C002B57
:1043E80005D07B68DB6C7868984700E000BF183719
:1043F800BD4680BD80B485B000AFF860B9607A6012
:104408003B60FB681B681A68FB681B6822F4802203
:104418001A60FB681B683A685A60FB689B68402B07
:1044280008D1FB681B687A689A60FB681B68BA68E1
:10443800DA6007E0FB681B68BA689A60FB681B686B
:104448007A68DA6000BF1437BD465DF8047B7047B0
:1044580080B485B000AF78607B681B68DBB2103B26
:10446800144AA2FB03231B09FB60134AFB6813448D
:104478001B781A467B68DA65FB68032B09D97B68C9
:104488001B6823F47F7323F003031A1D7B689A6566
:1044980007E07B681B6823F47F7323F003037A68C3
:1044A80093657B689B6D18461437BD465DF8047BA1
:1044B800704700BFABAAAAAAA8F7000880B485B0C5
:1044C80000AF78600023FB737B689B6ABB607B68E6
:1044D8009B69002B1FD1BB68032B56D801A252F849
:1044E80023F000BFFD4400080F450008FD44000804
:1044F800934500087B68DB6A03F08073002B46D085
:104508000123FB7343E07B68DB6AB3F1C07F40D1D2
:104518000123FB733DE07B689B69B3F5005F21D104
:10452800BB68032B37D801A252F823F04545000891
:104538004B450008454500085D4500080123FB730D
:1045480030E07B68DB6A03F08073002B25D0012301
:10455800FB7322E07B68DB6AB3F1C07F1FD10123C4
:10456800FB731CE0BB68022B03D9BB68032B03D089
:1045780018E00123FB7315E07B68DB6A03F08073A6
:10458800002B0ED00123FB730BE000BF0AE000BF35
:1045980008E000BF06E000BF04E000BF02E000BF83
:1045A80000E000BFFB7B18461437BD465DF8047B6E
:1045B800704700BF80B586B000AFF860B960C7E942
:1045C8000023234B1B7E012B01D102233BE0204B10
:1045D80001221A764CF2503000F070F80346FB7551
:1045E800FB7D002B2BD1FB68002B05D13B781946AE
:1045F800B86800F01BF916E0FB68012B05D13B8871
:104608001946B86800F0EEF80DE0FB68022B05D1FA
:104618003B681946B86800F0C3F804E0D7E90023FE
:10462800B86800F08BF84CF2503000F047F80346B9
:10463800FB75084B1B69074A23F001031361044B00
:1046480000221A76FB7D18461837BD4680BD00BF8C
:10465800DC000020003C024080B483B000AF00239F
:10466800FB710B4B1B69002B0BDA094B094A5A608B
:10467800074B094A5A60064B1B69002B01DA0123D4
:10468800FB71FB7918460C37BD465DF8047B704713
:10469800003C024023016745AB89EFCD80B400AFF1
:1046A800054B1B69044A43F0004313610023184675
:1046B800BD465DF8047B7047003C024080B584B07D
:1046C80000AF78600023FB601A4B0022DA61FFF725
:1046D8002DFAF86010E07B68B3F1FF3F0CD07B68DF
:1046E800002B07D0FFF722FA0246FB68D31A7A6834
:1046F8009A4201D2032319E00F4BDB6803F480339D
:10470800002BE8D10C4BDB6803F00103002B02D02F
:10471800094B0122DA60084BDB6803F0F203002B37
:1047280003D000F0A5F8012300E000231846103755
:10473800BD4680BDDC000020003C024080B485B04E
:1047480000AFF860C7E90023144B1B69134A23F430
:1047580040731361114B1B69104A43F44073136192
:104768000E4B1B690D4A43F001031361FB683A685D
:104778001A60BFF36F8F00BFD7E900014FF0000246
:104788004FF000030A000023F968043113460B6058
:1047980000BF1437BD465DF8047B7047003C0240FB
:1047A80080B483B000AF786039600D4B1B690C4A48
:1047B80023F4407313610A4B1B69094A43F40073DD
:1047C8001361074B1B69064A43F0010313617B68B9
:1047D8003A681A6000BF0C37BD465DF8047B704725
:1047E800003C024080B483B000AF78600B467B8009
:1047F8000D4B1B690C4A23F4407313610A4B1B6968
:10480800094A43F480731361074B1B69064A43F056
:10481800010313617B687A881A8000BF0C37BD4694
:104828005DF8047B704700BF003C024080B483B051
:1048380000AF78600B46FB700C4B1B690B4A23F4E6
:1048480040731361094B094A1B691361074B1B69C4
:10485800064A43F0010313617B68FA781A7000BFB7
:104868000C37BD465DF8047B704700BF003C024032
:1048780080B400AF274BDB6803F01003002B08D08F
:10488800254BDB6943F01003234AD361214B1022E7
:10489800DA60204BDB6803F02003002B08D01E4BA6
:1048A800DB6943F008031C4AD3611A4B2022DA6003
:1048B800184BDB6803F04003002B08D0164BDB696C
:1048C80043F00403144AD361124B4022DA60114BBF
:1048D800DB6803F08003002B08D00F4BDB6943F043
:1048E80002030D4AD3610B4B8022DA60094BDB6867
:1048F80003F00203002B08D0074BDB6943F02003C9
:10490800054AD361034B0222DA6000BFBD465DF859
:10491800047B7047003C0240DC00002080B584B076
:1049280000AF786039600023BB60314B1B7E012BE0
:1049380001D1022358E02E4B01221A764CF2503056
:10494800FFF7BCFE0346FB73FB7B002B48D13B689B
:104958004FF0FF321A607B681B68012B15D17B680A
:104968001B69DAB27B685B681946104600F044F8A8
:104978004CF25030FFF7A2FE0346FB731D4B1B6938
:104988001C4A23F00403136128E07B689B68BB6022
:104998001CE07B681B69DBB21946B86800F050F868
:1049A8004CF25030FFF78AFE0346FB73114B1B692C
:1049B800104A23F07A031361FB7B002B03D03B687A
:1049C800BA681A600AE0BB680133BB607B68DA68C2
:1049D8007B689B681344BA689A42DAD300F078F887
:1049E800034B00221A76FB7B18461037BD4680BD64
:1049F800DC000020003C024080B483B000AF0346D6
:104A08003960FB710D4B1B690C4A23F44073136129
:104A18000A4B1B69094A43F004031361074B1A69DF
:104A2800FB791B021343054A43F48033136100BF2B
:104A38000C37BD465DF8047B704700BF003C024060
:104A480080B485B000AF78600B46FB700023FB6034
:104A5800FB78002B02D10023FB6010E0FB78012BD0
:104A680003D14FF48073FB6009E0FB78022B03D17C
:104A78004FF40073FB6002E04FF44073FB60134B8C
:104A88001B69124A23F440731361104B1A690F49CA
:104A9800FB6813430B610D4B1B690C4A23F0780329
:104AA80013610A4B1A697B68DB001343074A43F01A
:104AB80002031361054B1B69044A43F480331361F5
:104AC80000BF1437BD465DF8047B7047003C0240C8
:104AD80080B400AF204B1B6803F40073002B17D081
:104AE8001D4B1B681C4A23F4007313601A4B1B6888
:104AF800194A43F400631360174B1B68164A23F4E2
:104B080000631360144B1B68134A43F4007313606B
:104B1800114B1B6803F48063002B17D00E4B1B68E6
:104B28000D4A23F4806313600B4B1B680A4A43F455
:104B380080531360084B1B68074A23F480531360A3
:104B4800054B1B68044A43F48063136000BFBD46ED
:104B58005DF8047B704700BF003C024080B489B018
:104B680000AF7860396000237B6100233B6100233C
:104B7800BB610023FB616BE10122FB6902FA03F3CD
:104B88007B613B681B687A6913403B613A697B69C2
:104B98009A4240F05A813B685B6803F00303012B9B
:104BA80005D03B685B6803F00303022B30D17B68B8
:104BB8009B68BB61FB695B00032202FA03F3DB43DA
:104BC800BA691340BB613B68DA68FB695B0002FAAB
:104BD80003F3BA691343BB617B68BA699A607B685F
:104BE8005B68BB610122FB6902FA03F3DB43BA6924
:104BF8001340BB613B685B681B0903F00102FB695A
:104C080002FA03F3BA691343BB617B68BA695A6055
:104C18003B685B6803F00303032B17D07B68DB68F2
:104C2800BB61FB695B00032202FA03F3DB43BA6949
:104C38001340BB613B689A68FB695B0002FA03F3A7
:104C4800BA691343BB617B68BA69DA603B685B6821
:104C580003F00303022B23D1FB69DA087B680832CF
:104C680053F82230BB61FB6903F007039B000F2256
:104C780002FA03F3DB43BA691340BB613B681A6964
:104C8800FB6903F007039B0002FA03F3BA691343B5
:104C9800BB61FB69DA087B680832B96943F82210FE
:104CA8007B681B68BB61FB695B00032202FA03F3A4
:104CB800DB43BA691340BB613B685B6803F00302DE
:104CC800FB695B0002FA03F3BA691343BB617B68B3
:104CD800BA691A603B685B6803F44033002B00F044
:104CE800B4800023FB60604B5B6C5F4A43F48043F5
:104CF80053645D4B5B6C03F48043FB60FB685B4A69
:104D0800FB699B08023352F82330BB61FB6903F04F
:104D180003039B000F2202FA03F3DB43BA69134033
:104D2800BB617B68524A93422BD07B68514A9342BD
:104D380025D07B68504A93421FD07B684F4A9342E4
:104D480019D07B684E4A934213D07B684D4A9342F0
:104D58000DD07B684C4A934207D07B684B4A9342FC
:104D680001D107230EE008230CE006230AE00523FF
:104D780008E0042306E0032304E0022302E0012301
:104D880000E00023FA6902F0030292009340BA6936
:104D98001343BB613549FB699B080233BA6941F883
:104DA80023203B4B9B68BB613B69DB43BA691340DB
:104DB800BB613B685B6803F48013002B03D0BA69BE
:104DC8003B691343BB61324ABB699360304BDB6874
:104DD800BB613B69DB43BA691340BB613B685B68F5
:104DE80003F40013002B03D0BA693B691343BB617A
:104DF800274ABB69D360264B5B68BB613B69DB43D1
:104E0800BA691340BB613B685B6803F40033002B4D
:104E180003D0BA693B691343BB611D4ABB69536040
:104E28001B4B1B68BB613B69DB43BA691340BB6121
:104E38003B685B6803F48033002B03D0BA693B6995
:104E48001343BB61124ABB691360FB690133FB6101
:104E5800FB690F2B7FF690AE00BF00BF2437BD461D
:104E68005DF8047B704700BF0038024000380140FD
:104E7800000002400004024000080240000C02400A
:104E8800001002400014024000180240001C0240BA
:104E9800003C014080B485B000AF78600B467B8051
:104EA8007B681A697B881340002B02D00123FB73AF
:104EB80001E00023FB73FB7B18461437BD465DF801
:104EC800047B704780B483B000AF78600B467B806A
:104ED80013467B707B78002B03D07A887B689A61B5
:104EE80003E07B881A047B689A6100BF0C37BD46D3
:104EF8005DF8047B7047000080B582B000AF0346C0
:104F0800FB80084B5A69FB881340002B06D0054AE2
:104F1800FB885361FB881846FDF7B0FA00BF0837D5
:104F2800BD4680BD003C014080B586B002AF7860C8
:104F38007B68002B01D1012301E17B681B68BB6002
:104F48007B6893F89534DBB2002B06D17B6800228E
:104F580083F89424786807F03FFF7B68032283F87E
:104F68009524BB68B3F1A04F02D17B6800229A71E7
:104F78007B681B68184604F06AFB7B6818687B68C6
:104F88001A7C8DF8002004330ECB04F049FA03464E
:104F9800002B05D07B68022283F895240123CEE0FC
:104FA8007B681B680021184604F062FB0346002B4F
:104FB80005D07B68022283F895240123BFE00023F3
:104FC800FB734AE0FA7B79681346DB0013449B00C5
:104FD8000B44153301221A70FA7B79681346DB00FB
:104FE80013449B000B441433FA7B1A70FA7BFB7B47
:104FF80098B279681346DB0013449B000B442E33A8
:1050080002461A80FA7B79681346DB0013449B003A
:105018000B44183300221A70FA7B79681346DB00B8
:1050280013449B000B441C3300221A60FA7B7968F6
:105038001346DB0013449B000B44203300221A6004
:10504800FA7B79681346DB0013449B000B44243336
:1050580000221A60FB7B0133FB737B681B79FA7BA8
:105068009A42AFD30023FB7344E0FA7B7968134676
:10507800DB0013449B000B4403F2552300221A70F3
:10508800FA7B79681346DB0013449B000B4403F555
:105098001573FA7B1A70FA7B79681346DB001344A0
:1050A8009B000B4403F5167300221A70FA7B79688B
:1050B8001346DB0013449B000B4403F517730022CF
:1050C8001A60FA7B79681346DB0013449B000B4493
:1050D80003F5187300221A60FA7B79681346DB001F
:1050E80013449B000B4403F5197300221A60FB7BE1
:1050F8000133FB737B681B79FA7B9A42B5D37B68D3
:1051080018687B681A7C8DF8002004330ECB04F0F5
:10511800FBFA0346002B05D07B68022283F895240E
:1051280001230CE07B6800225A747B68012283F813
:1051380095247B681B68184605F045FB0023184634
:105148001037BD4680BD80B584B000AF78607B68FD
:105158001B68FB607B6893F89434012B01D1022310
:1051680022E07B68012283F89424FB68DB6803F063
:105178004003002B09D07B685B7B012B05D1FB68C2
:105188009B6B43F48032FB689A637B681B68184604
:1051980004F04CFA7B681B68184605F0F3FA7B6844
:1051A800002283F89424002318461037BD4680BD9A
:1051B80090B58DB000AF78607B681B683B623B6A36
:1051C800FB617B681B68184605F0B1FB0346002BA2
:1051D80040F08C847B681B68184605F015FB034675
:1051E800002B00F08284FB6903F500639B681B0AAF
:1051F800C3F30D027B68C3F8D4247B681B68184688
:1052080005F002FB034603F00203022B07D17B687B
:105218001B685A697B681B6802F002025A617B6846
:105228001B68184605F0F0FA034603F01003102B2C
:1052380061D17B681B689A697B681B6822F0100241
:105248009A613B6A1B6ABB61BB6903F00F02134694
:10525800DB0013449B0003F514737A68134404338A
:105268007B61BB695B0C03F00F03022B24D1BA6985
:1052780047F6F0731340002B35D07B69D968BB69BA
:105288001B099BB2C3F30A039BB21A46386A05F09E
:1052980027F97B69DA68BB691B09C3F30A031A4457
:1052A8007B69DA607B695A69BB691B09C3F30A0326
:1052B8001A447B695A6116E0BB695B0C03F00F0363
:1052C800062B10D17B6803F29C4308221946386AE2
:1052D80005F006F97B695A69BB691B09C3F30A0320
:1052E8001A447B695A617B681B689A697B681B68EA
:1052F80042F010029A617B681B68184605F084FA30
:10530800034603F40023B3F5002F40F0A7800023E1
:105318007B627B681B68184605F089FAB86299E0D9
:10532800BB6A03F00103002B00F08E807B681B68CA
:105338007A6AD2B21146184605F0ADFA38613B696F
:1053480003F00103002B0CD07B6A5A01FB6913445C
:1053580003F530631A4601239360796A786800F090
:10536800A3FE3B6903F00803002B0CD07B6A5A01AB
:10537800FB69134403F530631A4608239360796A7E
:10538800786800F079FF3B6903F01003002B08D020
:105398007B6A5A01FB69134403F530631A461023EC
:1053A80093603B6903F00203002B30D03B6A5B69D2
:1053B80003F08003802B09D1FB6903F500635B6868
:1053C800FA6902F5006243F4806353607A6A13460F
:1053D800DB0013449B0003F514737A681344043309
:1053E8007B617B69DB78012B08D17B690022DA704D
:1053F8007B6ADBB21946786807F0F4FD7B6A5A01CC
:10540800FB69134403F530631A46022393603B6932
:1054180003F02003002B08D07B6A5A01FB69134470
:1054280003F530631A46202393603B6903F4005365
:10543800002B09D07B6A5A01FB69134403F53063DA
:105448001A464FF4005393607B6A01337B62BB6A50
:105458005B08BB62BB6A002B7FF462AF7B681B688A
:10546800184605F0D1F9034603F48023B3F5802FDD
:1054780040F0DB807B681B68184605F0F2F9B862DB
:1054880000237B62CDE0BB6A03F00103002B00F030
:10549800C2807B681B687A6AD2B21146184605F04A
:1054A80018FA38613B6903F00103002B57D07B6A77
:1054B80003F00F03012202FA03F3FB60FB6903F513
:1054C80000635A6BFB68DB43F96901F5006113401F
:1054D8004B637B6A5A01FB69134403F510631A4650
:1054E800012393607B689B79012B32D179687A6AB2
:1054F8001346DB0013449B000B442033196878687B
:105508007A6A1346DB0013449B0003441C331B6870
:10551800194478687A6A1346DB0013449B000344F5
:10552800203319607B6A002B13D179687A6A134695
:10553800DB0013449B000B4424331B68002B08D169
:105548007B6818687B6803F29C431A46012105F0C2
:105558001FFA7B6ADBB21946786807F0BEFC3B6924
:1055680003F00803002B08D07B6A5A01FB69134437
:1055780003F510631A46082393603B6903F0100390
:10558800002B08D07B6A5A01FB69134403F51063AA
:105598001A46102393603B6903F04003002B08D0A0
:1055A8007B6A5A01FB69134403F510631A464023CA
:1055B80093603B6903F00203002B23D0796A386AB1
:1055C80004F006FA7A6A1346DB0013449B00103392
:1055D8007A68134404337B617B69DB78012B08D13B
:1055E8007B690022DA707B6ADBB21946786807F0BB
:1055F8000BFD7B6A5A01FB69134403F510631A46D5
:10560800022393603B6903F08003002B03D0796A7F
:10561800786800F0BDFC7B6A01337B62BB6A5B087B
:10562800BB62BB6A002B7FF42EAF7B681B681846F1
:1056380005F0EAF8034603F00043B3F1004F22D126
:10564800FB6903F500635B68FA6902F5006223F001
:10565800010353607B6893F8CC34012B08D17B6835
:10566800002283F8CC240021786800F0A3FE02E031
:10567800786807F0A9FC7B681B685A697B681B6817
:1056880002F000425A617B681B68184605F0BCF8B6
:10569800034603F40063B3F5006F12D1FB6903F509
:1056A80000639B6803F00103012B02D1786807F0BF
:1056B80065FC7B681B685A697B681B6802F400629A
:1056C8005A617B681B68184605F09EF8034603F488
:1056D8008053B3F5805F40F0B780FB6903F5006342
:1056E8005B68FA6902F5006223F0010353607B6886
:1056F8001B681021184604F06BF90023FB6246E092
:10570800FB6A5A01FB69134403F510631A464FF606
:105718007F339360FB6A5A01FB69134403F51063F6
:105728001B68FA6A5101FA690A4402F5106223F407
:1057380000131360FB6A5A01FB69134403F53063D5
:105748001A464FF67F339360FB6A5A01FB6913448C
:1057580003F530631B68FA6A5101FA690A4402F5D5
:10576800306223F400131360FB6A5A01FB69134487
:1057780003F530631B68FA6A5101FA690A4402F5B5
:10578800306243F000631360FB6A0133FB627B689D
:105798001B791A46FB6A9342B2D3FB6903F500638F
:1057A800DB69FA6902F5006243F00113D3617B6893
:1057B800DB7B002B16D0FB6903F50063D3F884303C
:1057C800FA6902F5006243F00B03C2F88430FB6902
:1057D80003F500635B6CFA6902F5006243F00B03A2
:1057E800536415E0FB6903F500635B69FA6902F528
:1057F800006243F4005343F02B035361FB6903F544
:1058080000631B69FA6902F5006243F00B03136138
:10581800FB6903F500631B68FA6902F5006223F46B
:10582800FE6313607B6818687B6899797B6803F26C
:105838009C431A4605F0ACF87B681B685A697B687C
:105848001B6802F480525A617B681B68184604F092
:10585800DBFF034603F40053B3F5005F23D17B68F5
:105868001B68184605F071F87B681B68184604F039
:1058780028F903461A467B68DA717B681C6801F0D0
:1058880009FA01467B68DB791A46204603F02CFEAC
:10589800786807F04AFB7B681B685A697B681B6855
:1058A80002F400525A617B681B68184604F0ACFF8A
:1058B800034603F00803082B0AD1786807F027FB92
:1058C8007B681B685A697B681B6802F008025A618A
:1058D8007B681B68184604F097FF034603F08003B3
:1058E800802B23D13B6A9B6923F080023B6A9A6133
:1058F80001237B6214E079687A6A1346DB0013445B
:105908009B000B4403F257231B78012B05D17B6ABC
:10591800DBB21946786800F00AFB7B6A01337B62C8
:105928007B681B791A467B6A9342E4D37B681B68C1
:10593800184604F069FF034603F48013B3F5801F8B
:105948003CD101237B622BE07B6A5A01FB6913443B
:1059580003F510631B68BB6179687A6A1346DB003C
:1059680013449B000B4418331B78012B15D1BB69DA
:10597800002B12DA79687A6A1346DB0013449B001D
:105988000B44173301221A707B6ADBB263F07F0382
:10599800DBB21946786800F0CAFA7B6A01337B6289
:1059A8007B681B791A467B6A9342CDD37B681B6858
:1059B8005A697B681B6802F480125A617B681B680D
:1059C800184604F021FF034603F40013B3F5001F43
:1059D80056D101237B6245E07B6A5A01FB69134477
:1059E80003F530631B68BB6179687A6A1346DB008C
:1059F80013449B000B4403F516731B78012B2ED11F
:105A0800BB69002B2BDABB691A0C7B68D3F8D4343A
:105A1800534003F00103002B21D179687A6A1346B9
:105A2800DB0013449B000B4403F2572301221A7036
:105A38003B6A9B6943F080023B6A9A613B6A5B69F7
:105A480003F08003002B0AD1FB6903F500635B6850
:105A5800FA6902F5006243F40073536008E07B6A58
:105A680001337B627B681B791A467B6A9342B3D306
:105A78007B681B685A697B681B6802F400125A61CC
:105A88007B681B68184604F0BFFE034603F080439A
:105A9800B3F1804F0AD1786807F0C8FA7B681B68B1
:105AA8005A697B681B6802F080425A617B681B68F0
:105AB800184604F0A9FE034603F00403042B15D18D
:105AC8007B681B685B68BB61BB6903F00403002B40
